{"abi":[{"inputs":[{"internalType":"uint256","name":"minimum","type":"uint256"},{"internalType":"address","name":"creator","type":"address"}],"stateMutability":"nonpayable","type":"constructor"},{"inputs":[{"internalType":"uint256","name":"index","type":"uint256"}],"name":"approveRequest","outputs":[],"stateMutability":"nonpayable","type":"function"},{"inputs":[{"internalType":"address","name":"","type":"address"}],"name":"approvers","outputs":[{"internalType":"bool","name":"","type":"bool"}],"stateMutability":"view","type":"function"},{"inputs":[],"name":"approversCount","outputs":[{"internalType":"uint256","name":"","type":"uint256"}],"stateMutability":"view","type":"function"},{"inputs":[],"name":"contribute","outputs":[],"stateMutability":"payable","type":"function"},{"inputs":[{"internalType":"string","name":"description","type":"string"},{"internalType":"uint256","name":"value","type":"uint256"},{"internalType":"address payable","name":"recipient","type":"address"}],"name":"createRequest","outputs":[],"stateMutability":"nonpayable","type":"function"},{"inputs":[{"internalType":"uint256","name":"index","type":"uint256"}],"name":"finalizeRequest","outputs":[],"stateMutability":"nonpayable","type":"function"},{"inputs":[],"name":"manager","outputs":[{"internalType":"address","name":"","type":"address"}],"stateMutability":"view","type":"function"},{"inputs":[],"name":"minimumContribution","outputs":[{"internalType":"uint256","name":"","type":"uint256"}],"stateMutability":"view","type":"function"}],"devdoc":{"kind":"dev","methods":{},"version":1},"evm":{"assembly":"    /* \"campaign.sol\":440:2770  contract Campaign {... */\n  mstore(0x40, 0x80)\n    /* \"campaign.sol\":1001:1120  constructor(uint256 minimum, address creator) {... */\n  callvalue\n  dup1\n  iszero\n  tag_1\n  jumpi\n  0x00\n  dup1\n  revert\ntag_1:\n  pop\n  mload(0x40)\n  sub(codesize, bytecodeSize)\n  dup1\n  bytecodeSize\n  dup4\n  codecopy\n  dup2\n  dup2\n  add\n  0x40\n  mstore\n  dup2\n  add\n  swap1\n  tag_2\n  swap2\n  swap1\n  tag_3\n  jump\t// in\ntag_2:\n    /* \"campaign.sol\":1067:1074  creator */\n  dup1\n    /* \"campaign.sol\":1057:1064  manager */\n  0x01\n  0x00\n    /* \"campaign.sol\":1057:1074  manager = creator */\n  0x0100\n  exp\n  dup2\n  sload\n  dup2\n  0xffffffffffffffffffffffffffffffffffffffff\n  mul\n  not\n  and\n  swap1\n  dup4\n  0xffffffffffffffffffffffffffffffffffffffff\n  and\n  mul\n  or\n  swap1\n  sstore\n  pop\n    /* \"campaign.sol\":1106:1113  minimum */\n  dup2\n    /* \"campaign.sol\":1084:1103  minimumContribution */\n  0x02\n    /* \"campaign.sol\":1084:1113  minimumContribution = minimum */\n  dup2\n  swap1\n  sstore\n  pop\n    /* \"campaign.sol\":1001:1120  constructor(uint256 minimum, address creator) {... */\n  pop\n  pop\n    /* \"campaign.sol\":440:2770  contract Campaign {... */\n  jump(tag_6)\n    /* \"#utility.yul\":88:205   */\ntag_8:\n    /* \"#utility.yul\":197:198   */\n  0x00\n    /* \"#utility.yul\":194:195   */\n  dup1\n    /* \"#utility.yul\":187:199   */\n  revert\n    /* \"#utility.yul\":334:411   */\ntag_10:\n    /* \"#utility.yul\":371:378   */\n  0x00\n    /* \"#utility.yul\":400:405   */\n  dup2\n    /* \"#utility.yul\":389:405   */\n  swap1\n  pop\n    /* \"#utility.yul\":334:411   */\n  swap2\n  swap1\n  pop\n  jump\t// out\n    /* \"#utility.yul\":417:539   */\ntag_11:\n    /* \"#utility.yul\":490:514   */\n  tag_23\n    /* \"#utility.yul\":508:513   */\n  dup2\n    /* \"#utility.yul\":490:514   */\n  tag_10\n  jump\t// in\ntag_23:\n    /* \"#utility.yul\":483:488   */\n  dup2\n    /* \"#utility.yul\":480:515   */\n  eq\n    /* \"#utility.yul\":470:533   */\n  tag_24\n  jumpi\n    /* \"#utility.yul\":529:530   */\n  0x00\n    /* \"#utility.yul\":526:527   */\n  dup1\n    /* \"#utility.yul\":519:531   */\n  revert\n    /* \"#utility.yul\":470:533   */\ntag_24:\n    /* \"#utility.yul\":417:539   */\n  pop\n  jump\t// out\n    /* \"#utility.yul\":545:688   */\ntag_12:\n    /* \"#utility.yul\":602:607   */\n  0x00\n    /* \"#utility.yul\":633:639   */\n  dup2\n    /* \"#utility.yul\":627:640   */\n  mload\n    /* \"#utility.yul\":618:640   */\n  swap1\n  pop\n    /* \"#utility.yul\":649:682   */\n  tag_26\n    /* \"#utility.yul\":676:681   */\n  dup2\n    /* \"#utility.yul\":649:682   */\n  tag_11\n  jump\t// in\ntag_26:\n    /* \"#utility.yul\":545:688   */\n  swap3\n  swap2\n  pop\n  pop\n  jump\t// out\n    /* \"#utility.yul\":694:820   */\ntag_13:\n    /* \"#utility.yul\":731:738   */\n  0x00\n    /* \"#utility.yul\":771:813   */\n  0xffffffffffffffffffffffffffffffffffffffff\n    /* \"#utility.yul\":764:769   */\n  dup3\n    /* \"#utility.yul\":760:814   */\n  and\n    /* \"#utility.yul\":749:814   */\n  swap1\n  pop\n    /* \"#utility.yul\":694:820   */\n  swap2\n  swap1\n  pop\n  jump\t// out\n    /* \"#utility.yul\":826:922   */\ntag_14:\n    /* \"#utility.yul\":863:870   */\n  0x00\n    /* \"#utility.yul\":892:916   */\n  tag_29\n    /* \"#utility.yul\":910:915   */\n  dup3\n    /* \"#utility.yul\":892:916   */\n  tag_13\n  jump\t// in\ntag_29:\n    /* \"#utility.yul\":881:916   */\n  swap1\n  pop\n    /* \"#utility.yul\":826:922   */\n  swap2\n  swap1\n  pop\n  jump\t// out\n    /* \"#utility.yul\":928:1050   */\ntag_15:\n    /* \"#utility.yul\":1001:1025   */\n  tag_31\n    /* \"#utility.yul\":1019:1024   */\n  dup2\n    /* \"#utility.yul\":1001:1025   */\n  tag_14\n  jump\t// in\ntag_31:\n    /* \"#utility.yul\":994:999   */\n  dup2\n    /* \"#utility.yul\":991:1026   */\n  eq\n    /* \"#utility.yul\":981:1044   */\n  tag_32\n  jumpi\n    /* \"#utility.yul\":1040:1041   */\n  0x00\n    /* \"#utility.yul\":1037:1038   */\n  dup1\n    /* \"#utility.yul\":1030:1042   */\n  revert\n    /* \"#utility.yul\":981:1044   */\ntag_32:\n    /* \"#utility.yul\":928:1050   */\n  pop\n  jump\t// out\n    /* \"#utility.yul\":1056:1199   */\ntag_16:\n    /* \"#utility.yul\":1113:1118   */\n  0x00\n    /* \"#utility.yul\":1144:1150   */\n  dup2\n    /* \"#utility.yul\":1138:1151   */\n  mload\n    /* \"#utility.yul\":1129:1151   */\n  swap1\n  pop\n    /* \"#utility.yul\":1160:1193   */\n  tag_34\n    /* \"#utility.yul\":1187:1192   */\n  dup2\n    /* \"#utility.yul\":1160:1193   */\n  tag_15\n  jump\t// in\ntag_34:\n    /* \"#utility.yul\":1056:1199   */\n  swap3\n  swap2\n  pop\n  pop\n  jump\t// out\n    /* \"#utility.yul\":1205:1712   */\ntag_3:\n    /* \"#utility.yul\":1284:1290   */\n  0x00\n    /* \"#utility.yul\":1292:1298   */\n  dup1\n    /* \"#utility.yul\":1341:1343   */\n  0x40\n    /* \"#utility.yul\":1329:1338   */\n  dup4\n    /* \"#utility.yul\":1320:1327   */\n  dup6\n    /* \"#utility.yul\":1316:1339   */\n  sub\n    /* \"#utility.yul\":1312:1344   */\n  slt\n    /* \"#utility.yul\":1309:1428   */\n  iszero\n  tag_36\n  jumpi\n    /* \"#utility.yul\":1347:1426   */\n  tag_37\n  tag_8\n  jump\t// in\ntag_37:\n    /* \"#utility.yul\":1309:1428   */\ntag_36:\n    /* \"#utility.yul\":1467:1468   */\n  0x00\n    /* \"#utility.yul\":1492:1556   */\n  tag_38\n    /* \"#utility.yul\":1548:1555   */\n  dup6\n    /* \"#utility.yul\":1539:1545   */\n  dup3\n    /* \"#utility.yul\":1528:1537   */\n  dup7\n    /* \"#utility.yul\":1524:1546   */\n  add\n    /* \"#utility.yul\":1492:1556   */\n  tag_12\n  jump\t// in\ntag_38:\n    /* \"#utility.yul\":1482:1556   */\n  swap3\n  pop\n    /* \"#utility.yul\":1438:1566   */\n  pop\n    /* \"#utility.yul\":1605:1607   */\n  0x20\n    /* \"#utility.yul\":1631:1695   */\n  tag_39\n    /* \"#utility.yul\":1687:1694   */\n  dup6\n    /* \"#utility.yul\":1678:1684   */\n  dup3\n    /* \"#utility.yul\":1667:1676   */\n  dup7\n    /* \"#utility.yul\":1663:1685   */\n  add\n    /* \"#utility.yul\":1631:1695   */\n  tag_16\n  jump\t// in\ntag_39:\n    /* \"#utility.yul\":1621:1695   */\n  swap2\n  pop\n    /* \"#utility.yul\":1576:1705   */\n  pop\n    /* \"#utility.yul\":1205:1712   */\n  swap3\n  pop\n  swap3\n  swap1\n  pop\n  jump\t// out\n    /* \"campaign.sol\":440:2770  contract Campaign {... */\ntag_6:\n  dataSize(sub_0)\n  dup1\n  dataOffset(sub_0)\n  0x00\n  codecopy\n  0x00\n  return\nstop\n\nsub_0: assembly {\n        /* \"campaign.sol\":440:2770  contract Campaign {... */\n      mstore(0x40, 0x80)\n      jumpi(tag_1, lt(calldatasize, 0x04))\n      shr(0xe0, calldataload(0x00))\n      dup1\n      0x8a9cfd55\n      gt\n      tag_10\n      jumpi\n      dup1\n      0x8a9cfd55\n      eq\n      tag_6\n      jumpi\n      dup1\n      0x937e09b1\n      eq\n      tag_7\n      jumpi\n      dup1\n      0xd7bb99ba\n      eq\n      tag_8\n      jumpi\n      dup1\n      0xd7d1bbdb\n      eq\n      tag_9\n      jumpi\n      jump(tag_1)\n    tag_10:\n      dup1\n      0x03441006\n      eq\n      tag_2\n      jumpi\n      dup1\n      0x0a144391\n      eq\n      tag_3\n      jumpi\n      dup1\n      0x481c6a75\n      eq\n      tag_4\n      jumpi\n      dup1\n      0x82fde093\n      eq\n      tag_5\n      jumpi\n    tag_1:\n      0x00\n      dup1\n      revert\n        /* \"campaign.sol\":2367:2768  function finalizeRequest(uint256 index) public onlyOwner {... */\n    tag_2:\n      callvalue\n      dup1\n      iszero\n      tag_11\n      jumpi\n      0x00\n      dup1\n      revert\n    tag_11:\n      pop\n      tag_12\n      0x04\n      dup1\n      calldatasize\n      sub\n      dup2\n      add\n      swap1\n      tag_13\n      swap2\n      swap1\n      tag_14\n      jump\t// in\n    tag_13:\n      tag_15\n      jump\t// in\n    tag_12:\n      stop\n        /* \"campaign.sol\":786:827  mapping(address => bool) public approvers */\n    tag_3:\n      callvalue\n      dup1\n      iszero\n      tag_16\n      jumpi\n      0x00\n      dup1\n      revert\n    tag_16:\n      pop\n      tag_17\n      0x04\n      dup1\n      calldatasize\n      sub\n      dup2\n      add\n      swap1\n      tag_18\n      swap2\n      swap1\n      tag_19\n      jump\t// in\n    tag_18:\n      tag_20\n      jump\t// in\n    tag_17:\n      mload(0x40)\n      tag_21\n      swap2\n      swap1\n      tag_22\n      jump\t// in\n    tag_21:\n      mload(0x40)\n      dup1\n      swap2\n      sub\n      swap1\n      return\n        /* \"campaign.sol\":718:740  address public manager */\n    tag_4:\n      callvalue\n      dup1\n      iszero\n      tag_23\n      jumpi\n      0x00\n      dup1\n      revert\n    tag_23:\n      pop\n      tag_24\n      tag_25\n      jump\t// in\n    tag_24:\n      mload(0x40)\n      tag_26\n      swap2\n      swap1\n      tag_27\n      jump\t// in\n    tag_26:\n      mload(0x40)\n      dup1\n      swap2\n      sub\n      swap1\n      return\n        /* \"campaign.sol\":833:862  uint256 public approversCount */\n    tag_5:\n      callvalue\n      dup1\n      iszero\n      tag_28\n      jumpi\n      0x00\n      dup1\n      revert\n    tag_28:\n      pop\n      tag_29\n      tag_30\n      jump\t// in\n    tag_29:\n      mload(0x40)\n      tag_31\n      swap2\n      swap1\n      tag_32\n      jump\t// in\n    tag_31:\n      mload(0x40)\n      dup1\n      swap2\n      sub\n      swap1\n      return\n        /* \"campaign.sol\":1412:1890  function createRequest(... */\n    tag_6:\n      callvalue\n      dup1\n      iszero\n      tag_33\n      jumpi\n      0x00\n      dup1\n      revert\n    tag_33:\n      pop\n      tag_34\n      0x04\n      dup1\n      calldatasize\n      sub\n      dup2\n      add\n      swap1\n      tag_35\n      swap2\n      swap1\n      tag_36\n      jump\t// in\n    tag_35:\n      tag_37\n      jump\t// in\n    tag_34:\n      stop\n        /* \"campaign.sol\":746:780  uint256 public minimumContribution */\n    tag_7:\n      callvalue\n      dup1\n      iszero\n      tag_38\n      jumpi\n      0x00\n      dup1\n      revert\n    tag_38:\n      pop\n      tag_39\n      tag_40\n      jump\t// in\n    tag_39:\n      mload(0x40)\n      tag_41\n      swap2\n      swap1\n      tag_32\n      jump\t// in\n    tag_41:\n      mload(0x40)\n      dup1\n      swap2\n      sub\n      swap1\n      return\n        /* \"campaign.sol\":1126:1380  function contribute() public payable {... */\n    tag_8:\n      tag_42\n      tag_43\n      jump\t// in\n    tag_42:\n      stop\n        /* \"campaign.sol\":1896:2361  function approveRequest(uint256 index) public {... */\n    tag_9:\n      callvalue\n      dup1\n      iszero\n      tag_44\n      jumpi\n      0x00\n      dup1\n      revert\n    tag_44:\n      pop\n      tag_45\n      0x04\n      dup1\n      calldatasize\n      sub\n      dup2\n      add\n      swap1\n      tag_46\n      swap2\n      swap1\n      tag_14\n      jump\t// in\n    tag_46:\n      tag_47\n      jump\t// in\n    tag_45:\n      stop\n        /* \"campaign.sol\":2367:2768  function finalizeRequest(uint256 index) public onlyOwner {... */\n    tag_15:\n        /* \"campaign.sol\":969:976  manager */\n      0x01\n      0x00\n      swap1\n      sload\n      swap1\n      0x0100\n      exp\n      swap1\n      div\n      0xffffffffffffffffffffffffffffffffffffffff\n      and\n        /* \"campaign.sol\":955:976  msg.sender == manager */\n      0xffffffffffffffffffffffffffffffffffffffff\n      and\n        /* \"campaign.sol\":955:965  msg.sender */\n      caller\n        /* \"campaign.sol\":955:976  msg.sender == manager */\n      0xffffffffffffffffffffffffffffffffffffffff\n      and\n      eq\n        /* \"campaign.sol\":947:977  require(msg.sender == manager) */\n      tag_49\n      jumpi\n      0x00\n      dup1\n      revert\n    tag_49:\n        /* \"campaign.sol\":2434:2457  Request storage request */\n      0x00\n        /* \"campaign.sol\":2460:2468  requests */\n      dup1\n        /* \"campaign.sol\":2460:2475  requests[index] */\n      0x00\n        /* \"campaign.sol\":2469:2474  index */\n      dup4\n        /* \"campaign.sol\":2460:2475  requests[index] */\n      dup2\n      mstore\n      0x20\n      add\n      swap1\n      dup2\n      mstore\n      0x20\n      add\n      0x00\n      keccak256\n        /* \"campaign.sol\":2434:2475  Request storage request = requests[index] */\n      swap1\n      pop\n        /* \"campaign.sol\":2514:2519  false */\n      0x00\n        /* \"campaign.sol\":2494:2519  request.complete == false */\n      iszero\n      iszero\n        /* \"campaign.sol\":2494:2501  request */\n      dup2\n        /* \"campaign.sol\":2494:2510  request.complete */\n      0x02\n      add\n      0x14\n      swap1\n      sload\n      swap1\n      0x0100\n      exp\n      swap1\n      div\n      0xff\n      and\n        /* \"campaign.sol\":2494:2519  request.complete == false */\n      iszero\n      iszero\n      eq\n        /* \"campaign.sol\":2486:2554  require(request.complete == false, \"Request was already finalized.\") */\n      tag_51\n      jumpi\n      mload(0x40)\n      0x08c379a000000000000000000000000000000000000000000000000000000000\n      dup2\n      mstore\n      0x04\n      add\n      tag_52\n      swap1\n      tag_53\n      jump\t// in\n    tag_52:\n      mload(0x40)\n      dup1\n      swap2\n      sub\n      swap1\n      revert\n    tag_51:\n        /* \"campaign.sol\":2627:2628  2 */\n      0x02\n        /* \"campaign.sol\":2610:2624  approversCount */\n      sload(0x04)\n        /* \"campaign.sol\":2610:2628  approversCount / 2 */\n      tag_54\n      swap2\n      swap1\n      tag_55\n      jump\t// in\n    tag_54:\n        /* \"campaign.sol\":2585:2592  request */\n      dup2\n        /* \"campaign.sol\":2585:2606  request.approvalCount */\n      0x03\n      add\n      sload\n        /* \"campaign.sol\":2585:2629  request.approvalCount > (approversCount / 2) */\n      gt\n        /* \"campaign.sol\":2564:2676  require(... */\n      tag_56\n      jumpi\n      mload(0x40)\n      0x08c379a000000000000000000000000000000000000000000000000000000000\n      dup2\n      mstore\n      0x04\n      add\n      tag_57\n      swap1\n      tag_58\n      jump\t// in\n    tag_57:\n      mload(0x40)\n      dup1\n      swap2\n      sub\n      swap1\n      revert\n    tag_56:\n        /* \"campaign.sol\":2687:2694  request */\n      dup1\n        /* \"campaign.sol\":2687:2704  request.recipient */\n      0x02\n      add\n      0x00\n      swap1\n      sload\n      swap1\n      0x0100\n      exp\n      swap1\n      div\n      0xffffffffffffffffffffffffffffffffffffffff\n      and\n        /* \"campaign.sol\":2687:2713  request.recipient.transfer */\n      0xffffffffffffffffffffffffffffffffffffffff\n      and\n        /* \"campaign.sol\":2687:2728  request.recipient.transfer(request.value) */\n      0x08fc\n        /* \"campaign.sol\":2714:2721  request */\n      dup3\n        /* \"campaign.sol\":2714:2727  request.value */\n      0x01\n      add\n      sload\n        /* \"campaign.sol\":2687:2728  request.recipient.transfer(request.value) */\n      swap1\n      dup2\n      iszero\n      mul\n      swap1\n      mload(0x40)\n      0x00\n      mload(0x40)\n      dup1\n      dup4\n      sub\n      dup2\n      dup6\n      dup9\n      dup9\n      call\n      swap4\n      pop\n      pop\n      pop\n      pop\n      iszero\n      dup1\n      iszero\n      tag_60\n      jumpi\n      returndatasize\n      0x00\n      dup1\n      returndatacopy\n      revert(0x00, returndatasize)\n    tag_60:\n      pop\n        /* \"campaign.sol\":2757:2761  true */\n      0x01\n        /* \"campaign.sol\":2738:2745  request */\n      dup2\n        /* \"campaign.sol\":2738:2754  request.complete */\n      0x02\n      add\n      0x14\n        /* \"campaign.sol\":2738:2761  request.complete = true */\n      0x0100\n      exp\n      dup2\n      sload\n      dup2\n      0xff\n      mul\n      not\n      and\n      swap1\n      dup4\n      iszero\n      iszero\n      mul\n      or\n      swap1\n      sstore\n      pop\n        /* \"campaign.sol\":2424:2768  {... */\n      pop\n        /* \"campaign.sol\":2367:2768  function finalizeRequest(uint256 index) public onlyOwner {... */\n      pop\n      jump\t// out\n        /* \"campaign.sol\":786:827  mapping(address => bool) public approvers */\n    tag_20:\n      mstore(0x20, 0x03)\n      dup1\n      0x00\n      mstore\n      keccak256(0x00, 0x40)\n      0x00\n      swap2\n      pop\n      sload\n      swap1\n      0x0100\n      exp\n      swap1\n      div\n      0xff\n      and\n      dup2\n      jump\t// out\n        /* \"campaign.sol\":718:740  address public manager */\n    tag_25:\n      0x01\n      0x00\n      swap1\n      sload\n      swap1\n      0x0100\n      exp\n      swap1\n      div\n      0xffffffffffffffffffffffffffffffffffffffff\n      and\n      dup2\n      jump\t// out\n        /* \"campaign.sol\":833:862  uint256 public approversCount */\n    tag_30:\n      sload(0x04)\n      dup2\n      jump\t// out\n        /* \"campaign.sol\":1412:1890  function createRequest(... */\n    tag_37:\n        /* \"campaign.sol\":969:976  manager */\n      0x01\n      0x00\n      swap1\n      sload\n      swap1\n      0x0100\n      exp\n      swap1\n      div\n      0xffffffffffffffffffffffffffffffffffffffff\n      and\n        /* \"campaign.sol\":955:976  msg.sender == manager */\n      0xffffffffffffffffffffffffffffffffffffffff\n      and\n        /* \"campaign.sol\":955:965  msg.sender */\n      caller\n        /* \"campaign.sol\":955:976  msg.sender == manager */\n      0xffffffffffffffffffffffffffffffffffffffff\n      and\n      eq\n        /* \"campaign.sol\":947:977  require(msg.sender == manager) */\n      tag_62\n      jumpi\n      0x00\n      dup1\n      revert\n    tag_62:\n        /* \"campaign.sol\":1591:1612  address(this).balance */\n      selfbalance\n        /* \"campaign.sol\":1582:1587  value */\n      dup3\n        /* \"campaign.sol\":1582:1612  value <= address(this).balance */\n      gt\n      iszero\n        /* \"campaign.sol\":1561:1677  require(... */\n      tag_64\n      jumpi\n      mload(0x40)\n      0x08c379a000000000000000000000000000000000000000000000000000000000\n      dup2\n      mstore\n      0x04\n      add\n      tag_65\n      swap1\n      tag_66\n      jump\t// in\n    tag_65:\n      mload(0x40)\n      dup1\n      swap2\n      sub\n      swap1\n      revert\n    tag_64:\n        /* \"campaign.sol\":1687:1704  Request storage r */\n      0x00\n        /* \"campaign.sol\":1707:1715  requests */\n      dup1\n        /* \"campaign.sol\":1707:1730  requests[numRequests++] */\n      0x00\n        /* \"campaign.sol\":1716:1727  numRequests */\n      0x06\n      0x00\n        /* \"campaign.sol\":1716:1729  numRequests++ */\n      dup2\n      sload\n      dup1\n      swap3\n      swap2\n      swap1\n      tag_67\n      swap1\n      tag_68\n      jump\t// in\n    tag_67:\n      swap2\n      swap1\n      pop\n      sstore\n        /* \"campaign.sol\":1707:1730  requests[numRequests++] */\n      dup2\n      mstore\n      0x20\n      add\n      swap1\n      dup2\n      mstore\n      0x20\n      add\n      0x00\n      keccak256\n        /* \"campaign.sol\":1687:1730  Request storage r = requests[numRequests++] */\n      swap1\n      pop\n        /* \"campaign.sol\":1757:1768  description */\n      dup4\n        /* \"campaign.sol\":1741:1742  r */\n      dup2\n        /* \"campaign.sol\":1741:1754  r.description */\n      0x00\n      add\n        /* \"campaign.sol\":1741:1768  r.description = description */\n      swap1\n      dup1\n      mload\n      swap1\n      0x20\n      add\n      swap1\n      tag_69\n      swap3\n      swap2\n      swap1\n      tag_70\n      jump\t// in\n    tag_69:\n      pop\n        /* \"campaign.sol\":1788:1793  value */\n      dup3\n        /* \"campaign.sol\":1778:1779  r */\n      dup2\n        /* \"campaign.sol\":1778:1785  r.value */\n      0x01\n      add\n        /* \"campaign.sol\":1778:1793  r.value = value */\n      dup2\n      swap1\n      sstore\n      pop\n        /* \"campaign.sol\":1817:1826  recipient */\n      dup2\n        /* \"campaign.sol\":1803:1804  r */\n      dup2\n        /* \"campaign.sol\":1803:1814  r.recipient */\n      0x02\n      add\n      0x00\n        /* \"campaign.sol\":1803:1826  r.recipient = recipient */\n      0x0100\n      exp\n      dup2\n      sload\n      dup2\n      0xffffffffffffffffffffffffffffffffffffffff\n      mul\n      not\n      and\n      swap1\n      dup4\n      0xffffffffffffffffffffffffffffffffffffffff\n      and\n      mul\n      or\n      swap1\n      sstore\n      pop\n        /* \"campaign.sol\":1849:1854  false */\n      0x00\n        /* \"campaign.sol\":1836:1837  r */\n      dup2\n        /* \"campaign.sol\":1836:1846  r.complete */\n      0x02\n      add\n      0x14\n        /* \"campaign.sol\":1836:1854  r.complete = false */\n      0x0100\n      exp\n      dup2\n      sload\n      dup2\n      0xff\n      mul\n      not\n      and\n      swap1\n      dup4\n      iszero\n      iszero\n      mul\n      or\n      swap1\n      sstore\n      pop\n        /* \"campaign.sol\":1882:1883  0 */\n      0x00\n        /* \"campaign.sol\":1864:1865  r */\n      dup2\n        /* \"campaign.sol\":1864:1879  r.approvalCount */\n      0x03\n      add\n        /* \"campaign.sol\":1864:1883  r.approvalCount = 0 */\n      dup2\n      swap1\n      sstore\n      pop\n        /* \"campaign.sol\":1551:1890  {... */\n      pop\n        /* \"campaign.sol\":1412:1890  function createRequest(... */\n      pop\n      pop\n      pop\n      jump\t// out\n        /* \"campaign.sol\":746:780  uint256 public minimumContribution */\n    tag_40:\n      sload(0x02)\n      dup2\n      jump\t// out\n        /* \"campaign.sol\":1126:1380  function contribute() public payable {... */\n    tag_43:\n        /* \"campaign.sol\":1207:1226  minimumContribution */\n      sload(0x02)\n        /* \"campaign.sol\":1194:1203  msg.value */\n      callvalue\n        /* \"campaign.sol\":1194:1226  msg.value >= minimumContribution */\n      lt\n      iszero\n        /* \"campaign.sol\":1173:1308  require(... */\n      tag_72\n      jumpi\n      mload(0x40)\n      0x08c379a000000000000000000000000000000000000000000000000000000000\n      dup2\n      mstore\n      0x04\n      add\n      tag_73\n      swap1\n      tag_74\n      jump\t// in\n    tag_73:\n      mload(0x40)\n      dup1\n      swap2\n      sub\n      swap1\n      revert\n    tag_72:\n        /* \"campaign.sol\":1343:1347  true */\n      0x01\n        /* \"campaign.sol\":1319:1328  approvers */\n      0x03\n        /* \"campaign.sol\":1319:1340  approvers[msg.sender] */\n      0x00\n        /* \"campaign.sol\":1329:1339  msg.sender */\n      caller\n        /* \"campaign.sol\":1319:1340  approvers[msg.sender] */\n      0xffffffffffffffffffffffffffffffffffffffff\n      and\n      0xffffffffffffffffffffffffffffffffffffffff\n      and\n      dup2\n      mstore\n      0x20\n      add\n      swap1\n      dup2\n      mstore\n      0x20\n      add\n      0x00\n      keccak256\n      0x00\n        /* \"campaign.sol\":1319:1347  approvers[msg.sender] = true */\n      0x0100\n      exp\n      dup2\n      sload\n      dup2\n      0xff\n      mul\n      not\n      and\n      swap1\n      dup4\n      iszero\n      iszero\n      mul\n      or\n      swap1\n      sstore\n      pop\n        /* \"campaign.sol\":1357:1371  approversCount */\n      0x04\n      0x00\n        /* \"campaign.sol\":1357:1373  approversCount++ */\n      dup2\n      sload\n      dup1\n      swap3\n      swap2\n      swap1\n      tag_75\n      swap1\n      tag_68\n      jump\t// in\n    tag_75:\n      swap2\n      swap1\n      pop\n      sstore\n      pop\n        /* \"campaign.sol\":1126:1380  function contribute() public payable {... */\n      jump\t// out\n        /* \"campaign.sol\":1896:2361  function approveRequest(uint256 index) public {... */\n    tag_47:\n        /* \"campaign.sol\":1952:1975  Request storage request */\n      0x00\n        /* \"campaign.sol\":1978:1986  requests */\n      dup1\n        /* \"campaign.sol\":1978:1993  requests[index] */\n      0x00\n        /* \"campaign.sol\":1987:1992  index */\n      dup4\n        /* \"campaign.sol\":1978:1993  requests[index] */\n      dup2\n      mstore\n      0x20\n      add\n      swap1\n      dup2\n      mstore\n      0x20\n      add\n      0x00\n      keccak256\n        /* \"campaign.sol\":1952:1993  Request storage request = requests[index] */\n      swap1\n      pop\n        /* \"campaign.sol\":2012:2021  approvers */\n      0x03\n        /* \"campaign.sol\":2012:2033  approvers[msg.sender] */\n      0x00\n        /* \"campaign.sol\":2022:2032  msg.sender */\n      caller\n        /* \"campaign.sol\":2012:2033  approvers[msg.sender] */\n      0xffffffffffffffffffffffffffffffffffffffff\n      and\n      0xffffffffffffffffffffffffffffffffffffffff\n      and\n      dup2\n      mstore\n      0x20\n      add\n      swap1\n      dup2\n      mstore\n      0x20\n      add\n      0x00\n      keccak256\n      0x00\n      swap1\n      sload\n      swap1\n      0x0100\n      exp\n      swap1\n      div\n      0xff\n      and\n        /* \"campaign.sol\":2004:2062  require(approvers[msg.sender], \"You are not an approver.\") */\n      tag_77\n      jumpi\n      mload(0x40)\n      0x08c379a000000000000000000000000000000000000000000000000000000000\n      dup2\n      mstore\n      0x04\n      add\n      tag_78\n      swap1\n      tag_79\n      jump\t// in\n    tag_78:\n      mload(0x40)\n      dup1\n      swap2\n      sub\n      swap1\n      revert\n    tag_77:\n        /* \"campaign.sol\":2126:2131  false */\n      0x00\n        /* \"campaign.sol\":2093:2131  request.approvals[msg.sender] == false */\n      iszero\n      iszero\n        /* \"campaign.sol\":2093:2100  request */\n      dup2\n        /* \"campaign.sol\":2093:2110  request.approvals */\n      0x04\n      add\n        /* \"campaign.sol\":2093:2122  request.approvals[msg.sender] */\n      0x00\n        /* \"campaign.sol\":2111:2121  msg.sender */\n      caller\n        /* \"campaign.sol\":2093:2122  request.approvals[msg.sender] */\n      0xffffffffffffffffffffffffffffffffffffffff\n      and\n      0xffffffffffffffffffffffffffffffffffffffff\n      and\n      dup2\n      mstore\n      0x20\n      add\n      swap1\n      dup2\n      mstore\n      0x20\n      add\n      0x00\n      keccak256\n      0x00\n      swap1\n      sload\n      swap1\n      0x0100\n      exp\n      swap1\n      div\n      0xff\n      and\n        /* \"campaign.sol\":2093:2131  request.approvals[msg.sender] == false */\n      iszero\n      iszero\n      eq\n        /* \"campaign.sol\":2072:2196  require(... */\n      tag_80\n      jumpi\n      mload(0x40)\n      0x08c379a000000000000000000000000000000000000000000000000000000000\n      dup2\n      mstore\n      0x04\n      add\n      tag_81\n      swap1\n      tag_82\n      jump\t// in\n    tag_81:\n      mload(0x40)\n      dup1\n      swap2\n      sub\n      swap1\n      revert\n    tag_80:\n        /* \"campaign.sol\":2234:2239  false */\n      0x00\n        /* \"campaign.sol\":2214:2239  request.complete == false */\n      iszero\n      iszero\n        /* \"campaign.sol\":2214:2221  request */\n      dup2\n        /* \"campaign.sol\":2214:2230  request.complete */\n      0x02\n      add\n      0x14\n      swap1\n      sload\n      swap1\n      0x0100\n      exp\n      swap1\n      div\n      0xff\n      and\n        /* \"campaign.sol\":2214:2239  request.complete == false */\n      iszero\n      iszero\n      eq\n        /* \"campaign.sol\":2206:2274  require(request.complete == false, \"Request was already finalized.\") */\n      tag_83\n      jumpi\n      mload(0x40)\n      0x08c379a000000000000000000000000000000000000000000000000000000000\n      dup2\n      mstore\n      0x04\n      add\n      tag_84\n      swap1\n      tag_53\n      jump\t// in\n    tag_84:\n      mload(0x40)\n      dup1\n      swap2\n      sub\n      swap1\n      revert\n    tag_83:\n        /* \"campaign.sol\":2317:2321  true */\n      0x01\n        /* \"campaign.sol\":2285:2292  request */\n      dup2\n        /* \"campaign.sol\":2285:2302  request.approvals */\n      0x04\n      add\n        /* \"campaign.sol\":2285:2314  request.approvals[msg.sender] */\n      0x00\n        /* \"campaign.sol\":2303:2313  msg.sender */\n      caller\n        /* \"campaign.sol\":2285:2314  request.approvals[msg.sender] */\n      0xffffffffffffffffffffffffffffffffffffffff\n      and\n      0xffffffffffffffffffffffffffffffffffffffff\n      and\n      dup2\n      mstore\n      0x20\n      add\n      swap1\n      dup2\n      mstore\n      0x20\n      add\n      0x00\n      keccak256\n      0x00\n        /* \"campaign.sol\":2285:2321  request.approvals[msg.sender] = true */\n      0x0100\n      exp\n      dup2\n      sload\n      dup2\n      0xff\n      mul\n      not\n      and\n      swap1\n      dup4\n      iszero\n      iszero\n      mul\n      or\n      swap1\n      sstore\n      pop\n        /* \"campaign.sol\":2331:2338  request */\n      dup1\n        /* \"campaign.sol\":2331:2352  request.approvalCount */\n      0x03\n      add\n      0x00\n        /* \"campaign.sol\":2331:2354  request.approvalCount++ */\n      dup2\n      sload\n      dup1\n      swap3\n      swap2\n      swap1\n      tag_85\n      swap1\n      tag_68\n      jump\t// in\n    tag_85:\n      swap2\n      swap1\n      pop\n      sstore\n      pop\n        /* \"campaign.sol\":1942:2361  {... */\n      pop\n        /* \"campaign.sol\":1896:2361  function approveRequest(uint256 index) public {... */\n      pop\n      jump\t// out\n    tag_70:\n      dup3\n      dup1\n      sload\n      tag_86\n      swap1\n      tag_87\n      jump\t// in\n    tag_86:\n      swap1\n      0x00\n      mstore\n      keccak256(0x00, 0x20)\n      swap1\n      0x1f\n      add\n      0x20\n      swap1\n      div\n      dup2\n      add\n      swap3\n      dup3\n      tag_89\n      jumpi\n      0x00\n      dup6\n      sstore\n      jump(tag_88)\n    tag_89:\n      dup3\n      0x1f\n      lt\n      tag_90\n      jumpi\n      dup1\n      mload\n      not(0xff)\n      and\n      dup4\n      dup1\n      add\n      or\n      dup6\n      sstore\n      jump(tag_88)\n    tag_90:\n      dup3\n      dup1\n      add\n      0x01\n      add\n      dup6\n      sstore\n      dup3\n      iszero\n      tag_88\n      jumpi\n      swap2\n      dup3\n      add\n    tag_91:\n      dup3\n      dup2\n      gt\n      iszero\n      tag_92\n      jumpi\n      dup3\n      mload\n      dup3\n      sstore\n      swap2\n      0x20\n      add\n      swap2\n      swap1\n      0x01\n      add\n      swap1\n      jump(tag_91)\n    tag_92:\n    tag_88:\n      pop\n      swap1\n      pop\n      tag_93\n      swap2\n      swap1\n      tag_94\n      jump\t// in\n    tag_93:\n      pop\n      swap1\n      jump\t// out\n    tag_94:\n    tag_95:\n      dup1\n      dup3\n      gt\n      iszero\n      tag_96\n      jumpi\n      0x00\n      dup2\n      0x00\n      swap1\n      sstore\n      pop\n      0x01\n      add\n      jump(tag_95)\n    tag_96:\n      pop\n      swap1\n      jump\t// out\n        /* \"#utility.yul\":7:82   */\n    tag_97:\n        /* \"#utility.yul\":40:46   */\n      0x00\n        /* \"#utility.yul\":73:75   */\n      0x40\n        /* \"#utility.yul\":67:76   */\n      mload\n        /* \"#utility.yul\":57:76   */\n      swap1\n      pop\n        /* \"#utility.yul\":7:82   */\n      swap1\n      jump\t// out\n        /* \"#utility.yul\":88:205   */\n    tag_98:\n        /* \"#utility.yul\":197:198   */\n      0x00\n        /* \"#utility.yul\":194:195   */\n      dup1\n        /* \"#utility.yul\":187:199   */\n      revert\n        /* \"#utility.yul\":211:328   */\n    tag_99:\n        /* \"#utility.yul\":320:321   */\n      0x00\n        /* \"#utility.yul\":317:318   */\n      dup1\n        /* \"#utility.yul\":310:322   */\n      revert\n        /* \"#utility.yul\":334:411   */\n    tag_100:\n        /* \"#utility.yul\":371:378   */\n      0x00\n        /* \"#utility.yul\":400:405   */\n      dup2\n        /* \"#utility.yul\":389:405   */\n      swap1\n      pop\n        /* \"#utility.yul\":334:411   */\n      swap2\n      swap1\n      pop\n      jump\t// out\n        /* \"#utility.yul\":417:539   */\n    tag_101:\n        /* \"#utility.yul\":490:514   */\n      tag_146\n        /* \"#utility.yul\":508:513   */\n      dup2\n        /* \"#utility.yul\":490:514   */\n      tag_100\n      jump\t// in\n    tag_146:\n        /* \"#utility.yul\":483:488   */\n      dup2\n        /* \"#utility.yul\":480:515   */\n      eq\n        /* \"#utility.yul\":470:533   */\n      tag_147\n      jumpi\n        /* \"#utility.yul\":529:530   */\n      0x00\n        /* \"#utility.yul\":526:527   */\n      dup1\n        /* \"#utility.yul\":519:531   */\n      revert\n        /* \"#utility.yul\":470:533   */\n    tag_147:\n        /* \"#utility.yul\":417:539   */\n      pop\n      jump\t// out\n        /* \"#utility.yul\":545:684   */\n    tag_102:\n        /* \"#utility.yul\":591:596   */\n      0x00\n        /* \"#utility.yul\":629:635   */\n      dup2\n        /* \"#utility.yul\":616:636   */\n      calldataload\n        /* \"#utility.yul\":607:636   */\n      swap1\n      pop\n        /* \"#utility.yul\":645:678   */\n      tag_149\n        /* \"#utility.yul\":672:677   */\n      dup2\n        /* \"#utility.yul\":645:678   */\n      tag_101\n      jump\t// in\n    tag_149:\n        /* \"#utility.yul\":545:684   */\n      swap3\n      swap2\n      pop\n      pop\n      jump\t// out\n        /* \"#utility.yul\":690:1019   */\n    tag_14:\n        /* \"#utility.yul\":749:755   */\n      0x00\n        /* \"#utility.yul\":798:800   */\n      0x20\n        /* \"#utility.yul\":786:795   */\n      dup3\n        /* \"#utility.yul\":777:784   */\n      dup5\n        /* \"#utility.yul\":773:796   */\n      sub\n        /* \"#utility.yul\":769:801   */\n      slt\n        /* \"#utility.yul\":766:885   */\n      iszero\n      tag_151\n      jumpi\n        /* \"#utility.yul\":804:883   */\n      tag_152\n      tag_98\n      jump\t// in\n    tag_152:\n        /* \"#utility.yul\":766:885   */\n    tag_151:\n        /* \"#utility.yul\":924:925   */\n      0x00\n        /* \"#utility.yul\":949:1002   */\n      tag_153\n        /* \"#utility.yul\":994:1001   */\n      dup5\n        /* \"#utility.yul\":985:991   */\n      dup3\n        /* \"#utility.yul\":974:983   */\n      dup6\n        /* \"#utility.yul\":970:992   */\n      add\n        /* \"#utility.yul\":949:1002   */\n      tag_102\n      jump\t// in\n    tag_153:\n        /* \"#utility.yul\":939:1002   */\n      swap2\n      pop\n        /* \"#utility.yul\":895:1012   */\n      pop\n        /* \"#utility.yul\":690:1019   */\n      swap3\n      swap2\n      pop\n      pop\n      jump\t// out\n        /* \"#utility.yul\":1025:1151   */\n    tag_103:\n        /* \"#utility.yul\":1062:1069   */\n      0x00\n        /* \"#utility.yul\":1102:1144   */\n      0xffffffffffffffffffffffffffffffffffffffff\n        /* \"#utility.yul\":1095:1100   */\n      dup3\n        /* \"#utility.yul\":1091:1145   */\n      and\n        /* \"#utility.yul\":1080:1145   */\n      swap1\n      pop\n        /* \"#utility.yul\":1025:1151   */\n      swap2\n      swap1\n      pop\n      jump\t// out\n        /* \"#utility.yul\":1157:1253   */\n    tag_104:\n        /* \"#utility.yul\":1194:1201   */\n      0x00\n        /* \"#utility.yul\":1223:1247   */\n      tag_156\n        /* \"#utility.yul\":1241:1246   */\n      dup3\n        /* \"#utility.yul\":1223:1247   */\n      tag_103\n      jump\t// in\n    tag_156:\n        /* \"#utility.yul\":1212:1247   */\n      swap1\n      pop\n        /* \"#utility.yul\":1157:1253   */\n      swap2\n      swap1\n      pop\n      jump\t// out\n        /* \"#utility.yul\":1259:1381   */\n    tag_105:\n        /* \"#utility.yul\":1332:1356   */\n      tag_158\n        /* \"#utility.yul\":1350:1355   */\n      dup2\n        /* \"#utility.yul\":1332:1356   */\n      tag_104\n      jump\t// in\n    tag_158:\n        /* \"#utility.yul\":1325:1330   */\n      dup2\n        /* \"#utility.yul\":1322:1357   */\n      eq\n        /* \"#utility.yul\":1312:1375   */\n      tag_159\n      jumpi\n        /* \"#utility.yul\":1371:1372   */\n      0x00\n        /* \"#utility.yul\":1368:1369   */\n      dup1\n        /* \"#utility.yul\":1361:1373   */\n      revert\n        /* \"#utility.yul\":1312:1375   */\n    tag_159:\n        /* \"#utility.yul\":1259:1381   */\n      pop\n      jump\t// out\n        /* \"#utility.yul\":1387:1526   */\n    tag_106:\n        /* \"#utility.yul\":1433:1438   */\n      0x00\n        /* \"#utility.yul\":1471:1477   */\n      dup2\n        /* \"#utility.yul\":1458:1478   */\n      calldataload\n        /* \"#utility.yul\":1449:1478   */\n      swap1\n      pop\n        /* \"#utility.yul\":1487:1520   */\n      tag_161\n        /* \"#utility.yul\":1514:1519   */\n      dup2\n        /* \"#utility.yul\":1487:1520   */\n      tag_105\n      jump\t// in\n    tag_161:\n        /* \"#utility.yul\":1387:1526   */\n      swap3\n      swap2\n      pop\n      pop\n      jump\t// out\n        /* \"#utility.yul\":1532:1861   */\n    tag_19:\n        /* \"#utility.yul\":1591:1597   */\n      0x00\n        /* \"#utility.yul\":1640:1642   */\n      0x20\n        /* \"#utility.yul\":1628:1637   */\n      dup3\n        /* \"#utility.yul\":1619:1626   */\n      dup5\n        /* \"#utility.yul\":1615:1638   */\n      sub\n        /* \"#utility.yul\":1611:1643   */\n      slt\n        /* \"#utility.yul\":1608:1727   */\n      iszero\n      tag_163\n      jumpi\n        /* \"#utility.yul\":1646:1725   */\n      tag_164\n      tag_98\n      jump\t// in\n    tag_164:\n        /* \"#utility.yul\":1608:1727   */\n    tag_163:\n        /* \"#utility.yul\":1766:1767   */\n      0x00\n        /* \"#utility.yul\":1791:1844   */\n      tag_165\n        /* \"#utility.yul\":1836:1843   */\n      dup5\n        /* \"#utility.yul\":1827:1833   */\n      dup3\n        /* \"#utility.yul\":1816:1825   */\n      dup6\n        /* \"#utility.yul\":1812:1834   */\n      add\n        /* \"#utility.yul\":1791:1844   */\n      tag_106\n      jump\t// in\n    tag_165:\n        /* \"#utility.yul\":1781:1844   */\n      swap2\n      pop\n        /* \"#utility.yul\":1737:1854   */\n      pop\n        /* \"#utility.yul\":1532:1861   */\n      swap3\n      swap2\n      pop\n      pop\n      jump\t// out\n        /* \"#utility.yul\":1867:1957   */\n    tag_107:\n        /* \"#utility.yul\":1901:1908   */\n      0x00\n        /* \"#utility.yul\":1944:1949   */\n      dup2\n        /* \"#utility.yul\":1937:1950   */\n      iszero\n        /* \"#utility.yul\":1930:1951   */\n      iszero\n        /* \"#utility.yul\":1919:1951   */\n      swap1\n      pop\n        /* \"#utility.yul\":1867:1957   */\n      swap2\n      swap1\n      pop\n      jump\t// out\n        /* \"#utility.yul\":1963:2072   */\n    tag_108:\n        /* \"#utility.yul\":2044:2065   */\n      tag_168\n        /* \"#utility.yul\":2059:2064   */\n      dup2\n        /* \"#utility.yul\":2044:2065   */\n      tag_107\n      jump\t// in\n    tag_168:\n        /* \"#utility.yul\":2039:2042   */\n      dup3\n        /* \"#utility.yul\":2032:2066   */\n      mstore\n        /* \"#utility.yul\":1963:2072   */\n      pop\n      pop\n      jump\t// out\n        /* \"#utility.yul\":2078:2288   */\n    tag_22:\n        /* \"#utility.yul\":2165:2169   */\n      0x00\n        /* \"#utility.yul\":2203:2205   */\n      0x20\n        /* \"#utility.yul\":2192:2201   */\n      dup3\n        /* \"#utility.yul\":2188:2206   */\n      add\n        /* \"#utility.yul\":2180:2206   */\n      swap1\n      pop\n        /* \"#utility.yul\":2216:2281   */\n      tag_170\n        /* \"#utility.yul\":2278:2279   */\n      0x00\n        /* \"#utility.yul\":2267:2276   */\n      dup4\n        /* \"#utility.yul\":2263:2280   */\n      add\n        /* \"#utility.yul\":2254:2260   */\n      dup5\n        /* \"#utility.yul\":2216:2281   */\n      tag_108\n      jump\t// in\n    tag_170:\n        /* \"#utility.yul\":2078:2288   */\n      swap3\n      swap2\n      pop\n      pop\n      jump\t// out\n        /* \"#utility.yul\":2294:2412   */\n    tag_109:\n        /* \"#utility.yul\":2381:2405   */\n      tag_172\n        /* \"#utility.yul\":2399:2404   */\n      dup2\n        /* \"#utility.yul\":2381:2405   */\n      tag_104\n      jump\t// in\n    tag_172:\n        /* \"#utility.yul\":2376:2379   */\n      dup3\n        /* \"#utility.yul\":2369:2406   */\n      mstore\n        /* \"#utility.yul\":2294:2412   */\n      pop\n      pop\n      jump\t// out\n        /* \"#utility.yul\":2418:2640   */\n    tag_27:\n        /* \"#utility.yul\":2511:2515   */\n      0x00\n        /* \"#utility.yul\":2549:2551   */\n      0x20\n        /* \"#utility.yul\":2538:2547   */\n      dup3\n        /* \"#utility.yul\":2534:2552   */\n      add\n        /* \"#utility.yul\":2526:2552   */\n      swap1\n      pop\n        /* \"#utility.yul\":2562:2633   */\n      tag_174\n        /* \"#utility.yul\":2630:2631   */\n      0x00\n        /* \"#utility.yul\":2619:2628   */\n      dup4\n        /* \"#utility.yul\":2615:2632   */\n      add\n        /* \"#utility.yul\":2606:2612   */\n      dup5\n        /* \"#utility.yul\":2562:2633   */\n      tag_109\n      jump\t// in\n    tag_174:\n        /* \"#utility.yul\":2418:2640   */\n      swap3\n      swap2\n      pop\n      pop\n      jump\t// out\n        /* \"#utility.yul\":2646:2764   */\n    tag_110:\n        /* \"#utility.yul\":2733:2757   */\n      tag_176\n        /* \"#utility.yul\":2751:2756   */\n      dup2\n        /* \"#utility.yul\":2733:2757   */\n      tag_100\n      jump\t// in\n    tag_176:\n        /* \"#utility.yul\":2728:2731   */\n      dup3\n        /* \"#utility.yul\":2721:2758   */\n      mstore\n        /* \"#utility.yul\":2646:2764   */\n      pop\n      pop\n      jump\t// out\n        /* \"#utility.yul\":2770:2992   */\n    tag_32:\n        /* \"#utility.yul\":2863:2867   */\n      0x00\n        /* \"#utility.yul\":2901:2903   */\n      0x20\n        /* \"#utility.yul\":2890:2899   */\n      dup3\n        /* \"#utility.yul\":2886:2904   */\n      add\n        /* \"#utility.yul\":2878:2904   */\n      swap1\n      pop\n        /* \"#utility.yul\":2914:2985   */\n      tag_178\n        /* \"#utility.yul\":2982:2983   */\n      0x00\n        /* \"#utility.yul\":2971:2980   */\n      dup4\n        /* \"#utility.yul\":2967:2984   */\n      add\n        /* \"#utility.yul\":2958:2964   */\n      dup5\n        /* \"#utility.yul\":2914:2985   */\n      tag_110\n      jump\t// in\n    tag_178:\n        /* \"#utility.yul\":2770:2992   */\n      swap3\n      swap2\n      pop\n      pop\n      jump\t// out\n        /* \"#utility.yul\":2998:3115   */\n    tag_111:\n        /* \"#utility.yul\":3107:3108   */\n      0x00\n        /* \"#utility.yul\":3104:3105   */\n      dup1\n        /* \"#utility.yul\":3097:3109   */\n      revert\n        /* \"#utility.yul\":3121:3238   */\n    tag_112:\n        /* \"#utility.yul\":3230:3231   */\n      0x00\n        /* \"#utility.yul\":3227:3228   */\n      dup1\n        /* \"#utility.yul\":3220:3232   */\n      revert\n        /* \"#utility.yul\":3244:3346   */\n    tag_113:\n        /* \"#utility.yul\":3285:3291   */\n      0x00\n        /* \"#utility.yul\":3336:3338   */\n      0x1f\n        /* \"#utility.yul\":3332:3339   */\n      not\n        /* \"#utility.yul\":3327:3329   */\n      0x1f\n        /* \"#utility.yul\":3320:3325   */\n      dup4\n        /* \"#utility.yul\":3316:3330   */\n      add\n        /* \"#utility.yul\":3312:3340   */\n      and\n        /* \"#utility.yul\":3302:3340   */\n      swap1\n      pop\n        /* \"#utility.yul\":3244:3346   */\n      swap2\n      swap1\n      pop\n      jump\t// out\n        /* \"#utility.yul\":3352:3532   */\n    tag_114:\n        /* \"#utility.yul\":3400:3477   */\n      0x4e487b7100000000000000000000000000000000000000000000000000000000\n        /* \"#utility.yul\":3397:3398   */\n      0x00\n        /* \"#utility.yul\":3390:3478   */\n      mstore\n        /* \"#utility.yul\":3497:3501   */\n      0x41\n        /* \"#utility.yul\":3494:3495   */\n      0x04\n        /* \"#utility.yul\":3487:3502   */\n      mstore\n        /* \"#utility.yul\":3521:3525   */\n      0x24\n        /* \"#utility.yul\":3518:3519   */\n      0x00\n        /* \"#utility.yul\":3511:3526   */\n      revert\n        /* \"#utility.yul\":3538:3819   */\n    tag_115:\n        /* \"#utility.yul\":3621:3648   */\n      tag_184\n        /* \"#utility.yul\":3643:3647   */\n      dup3\n        /* \"#utility.yul\":3621:3648   */\n      tag_113\n      jump\t// in\n    tag_184:\n        /* \"#utility.yul\":3613:3619   */\n      dup2\n        /* \"#utility.yul\":3609:3649   */\n      add\n        /* \"#utility.yul\":3751:3757   */\n      dup2\n        /* \"#utility.yul\":3739:3749   */\n      dup2\n        /* \"#utility.yul\":3736:3758   */\n      lt\n        /* \"#utility.yul\":3715:3733   */\n      0xffffffffffffffff\n        /* \"#utility.yul\":3703:3713   */\n      dup3\n        /* \"#utility.yul\":3700:3734   */\n      gt\n        /* \"#utility.yul\":3697:3759   */\n      or\n        /* \"#utility.yul\":3694:3782   */\n      iszero\n      tag_185\n      jumpi\n        /* \"#utility.yul\":3762:3780   */\n      tag_186\n      tag_114\n      jump\t// in\n    tag_186:\n        /* \"#utility.yul\":3694:3782   */\n    tag_185:\n        /* \"#utility.yul\":3802:3812   */\n      dup1\n        /* \"#utility.yul\":3798:3800   */\n      0x40\n        /* \"#utility.yul\":3791:3813   */\n      mstore\n        /* \"#utility.yul\":3581:3819   */\n      pop\n        /* \"#utility.yul\":3538:3819   */\n      pop\n      pop\n      jump\t// out\n        /* \"#utility.yul\":3825:3954   */\n    tag_116:\n        /* \"#utility.yul\":3859:3865   */\n      0x00\n        /* \"#utility.yul\":3886:3906   */\n      tag_188\n      tag_97\n      jump\t// in\n    tag_188:\n        /* \"#utility.yul\":3876:3906   */\n      swap1\n      pop\n        /* \"#utility.yul\":3915:3948   */\n      tag_189\n        /* \"#utility.yul\":3943:3947   */\n      dup3\n        /* \"#utility.yul\":3935:3941   */\n      dup3\n        /* \"#utility.yul\":3915:3948   */\n      tag_115\n      jump\t// in\n    tag_189:\n        /* \"#utility.yul\":3825:3954   */\n      swap2\n      swap1\n      pop\n      jump\t// out\n        /* \"#utility.yul\":3960:4268   */\n    tag_117:\n        /* \"#utility.yul\":4022:4026   */\n      0x00\n        /* \"#utility.yul\":4112:4130   */\n      0xffffffffffffffff\n        /* \"#utility.yul\":4104:4110   */\n      dup3\n        /* \"#utility.yul\":4101:4131   */\n      gt\n        /* \"#utility.yul\":4098:4154   */\n      iszero\n      tag_191\n      jumpi\n        /* \"#utility.yul\":4134:4152   */\n      tag_192\n      tag_114\n      jump\t// in\n    tag_192:\n        /* \"#utility.yul\":4098:4154   */\n    tag_191:\n        /* \"#utility.yul\":4172:4201   */\n      tag_193\n        /* \"#utility.yul\":4194:4200   */\n      dup3\n        /* \"#utility.yul\":4172:4201   */\n      tag_113\n      jump\t// in\n    tag_193:\n        /* \"#utility.yul\":4164:4201   */\n      swap1\n      pop\n        /* \"#utility.yul\":4256:4260   */\n      0x20\n        /* \"#utility.yul\":4250:4254   */\n      dup2\n        /* \"#utility.yul\":4246:4261   */\n      add\n        /* \"#utility.yul\":4238:4261   */\n      swap1\n      pop\n        /* \"#utility.yul\":3960:4268   */\n      swap2\n      swap1\n      pop\n      jump\t// out\n        /* \"#utility.yul\":4274:4428   */\n    tag_118:\n        /* \"#utility.yul\":4358:4364   */\n      dup3\n        /* \"#utility.yul\":4353:4356   */\n      dup2\n        /* \"#utility.yul\":4348:4351   */\n      dup4\n        /* \"#utility.yul\":4335:4365   */\n      calldatacopy\n        /* \"#utility.yul\":4420:4421   */\n      0x00\n        /* \"#utility.yul\":4411:4417   */\n      dup4\n        /* \"#utility.yul\":4406:4409   */\n      dup4\n        /* \"#utility.yul\":4402:4418   */\n      add\n        /* \"#utility.yul\":4395:4422   */\n      mstore\n        /* \"#utility.yul\":4274:4428   */\n      pop\n      pop\n      pop\n      jump\t// out\n        /* \"#utility.yul\":4434:4846   */\n    tag_119:\n        /* \"#utility.yul\":4512:4517   */\n      0x00\n        /* \"#utility.yul\":4537:4603   */\n      tag_196\n        /* \"#utility.yul\":4553:4602   */\n      tag_197\n        /* \"#utility.yul\":4595:4601   */\n      dup5\n        /* \"#utility.yul\":4553:4602   */\n      tag_117\n      jump\t// in\n    tag_197:\n        /* \"#utility.yul\":4537:4603   */\n      tag_116\n      jump\t// in\n    tag_196:\n        /* \"#utility.yul\":4528:4603   */\n      swap1\n      pop\n        /* \"#utility.yul\":4626:4632   */\n      dup3\n        /* \"#utility.yul\":4619:4624   */\n      dup2\n        /* \"#utility.yul\":4612:4633   */\n      mstore\n        /* \"#utility.yul\":4664:4668   */\n      0x20\n        /* \"#utility.yul\":4657:4662   */\n      dup2\n        /* \"#utility.yul\":4653:4669   */\n      add\n        /* \"#utility.yul\":4702:4705   */\n      dup5\n        /* \"#utility.yul\":4693:4699   */\n      dup5\n        /* \"#utility.yul\":4688:4691   */\n      dup5\n        /* \"#utility.yul\":4684:4700   */\n      add\n        /* \"#utility.yul\":4681:4706   */\n      gt\n        /* \"#utility.yul\":4678:4790   */\n      iszero\n      tag_198\n      jumpi\n        /* \"#utility.yul\":4709:4788   */\n      tag_199\n      tag_112\n      jump\t// in\n    tag_199:\n        /* \"#utility.yul\":4678:4790   */\n    tag_198:\n        /* \"#utility.yul\":4799:4840   */\n      tag_200\n        /* \"#utility.yul\":4833:4839   */\n      dup5\n        /* \"#utility.yul\":4828:4831   */\n      dup3\n        /* \"#utility.yul\":4823:4826   */\n      dup6\n        /* \"#utility.yul\":4799:4840   */\n      tag_118\n      jump\t// in\n    tag_200:\n        /* \"#utility.yul\":4518:4846   */\n      pop\n        /* \"#utility.yul\":4434:4846   */\n      swap4\n      swap3\n      pop\n      pop\n      pop\n      jump\t// out\n        /* \"#utility.yul\":4866:5206   */\n    tag_120:\n        /* \"#utility.yul\":4922:4927   */\n      0x00\n        /* \"#utility.yul\":4971:4974   */\n      dup3\n        /* \"#utility.yul\":4964:4968   */\n      0x1f\n        /* \"#utility.yul\":4956:4962   */\n      dup4\n        /* \"#utility.yul\":4952:4969   */\n      add\n        /* \"#utility.yul\":4948:4975   */\n      slt\n        /* \"#utility.yul\":4938:5060   */\n      tag_202\n      jumpi\n        /* \"#utility.yul\":4979:5058   */\n      tag_203\n      tag_111\n      jump\t// in\n    tag_203:\n        /* \"#utility.yul\":4938:5060   */\n    tag_202:\n        /* \"#utility.yul\":5096:5102   */\n      dup2\n        /* \"#utility.yul\":5083:5103   */\n      calldataload\n        /* \"#utility.yul\":5121:5200   */\n      tag_204\n        /* \"#utility.yul\":5196:5199   */\n      dup5\n        /* \"#utility.yul\":5188:5194   */\n      dup3\n        /* \"#utility.yul\":5181:5185   */\n      0x20\n        /* \"#utility.yul\":5173:5179   */\n      dup7\n        /* \"#utility.yul\":5169:5186   */\n      add\n        /* \"#utility.yul\":5121:5200   */\n      tag_119\n      jump\t// in\n    tag_204:\n        /* \"#utility.yul\":5112:5200   */\n      swap2\n      pop\n        /* \"#utility.yul\":4928:5206   */\n      pop\n        /* \"#utility.yul\":4866:5206   */\n      swap3\n      swap2\n      pop\n      pop\n      jump\t// out\n        /* \"#utility.yul\":5212:5316   */\n    tag_121:\n        /* \"#utility.yul\":5257:5264   */\n      0x00\n        /* \"#utility.yul\":5286:5310   */\n      tag_206\n        /* \"#utility.yul\":5304:5309   */\n      dup3\n        /* \"#utility.yul\":5286:5310   */\n      tag_103\n      jump\t// in\n    tag_206:\n        /* \"#utility.yul\":5275:5310   */\n      swap1\n      pop\n        /* \"#utility.yul\":5212:5316   */\n      swap2\n      swap1\n      pop\n      jump\t// out\n        /* \"#utility.yul\":5322:5460   */\n    tag_122:\n        /* \"#utility.yul\":5403:5435   */\n      tag_208\n        /* \"#utility.yul\":5429:5434   */\n      dup2\n        /* \"#utility.yul\":5403:5435   */\n      tag_121\n      jump\t// in\n    tag_208:\n        /* \"#utility.yul\":5396:5401   */\n      dup2\n        /* \"#utility.yul\":5393:5436   */\n      eq\n        /* \"#utility.yul\":5383:5454   */\n      tag_209\n      jumpi\n        /* \"#utility.yul\":5450:5451   */\n      0x00\n        /* \"#utility.yul\":5447:5448   */\n      dup1\n        /* \"#utility.yul\":5440:5452   */\n      revert\n        /* \"#utility.yul\":5383:5454   */\n    tag_209:\n        /* \"#utility.yul\":5322:5460   */\n      pop\n      jump\t// out\n        /* \"#utility.yul\":5466:5621   */\n    tag_123:\n        /* \"#utility.yul\":5520:5525   */\n      0x00\n        /* \"#utility.yul\":5558:5564   */\n      dup2\n        /* \"#utility.yul\":5545:5565   */\n      calldataload\n        /* \"#utility.yul\":5536:5565   */\n      swap1\n      pop\n        /* \"#utility.yul\":5574:5615   */\n      tag_211\n        /* \"#utility.yul\":5609:5614   */\n      dup2\n        /* \"#utility.yul\":5574:5615   */\n      tag_122\n      jump\t// in\n    tag_211:\n        /* \"#utility.yul\":5466:5621   */\n      swap3\n      swap2\n      pop\n      pop\n      jump\t// out\n        /* \"#utility.yul\":5627:6442   */\n    tag_36:\n        /* \"#utility.yul\":5722:5728   */\n      0x00\n        /* \"#utility.yul\":5730:5736   */\n      dup1\n        /* \"#utility.yul\":5738:5744   */\n      0x00\n        /* \"#utility.yul\":5787:5789   */\n      0x60\n        /* \"#utility.yul\":5775:5784   */\n      dup5\n        /* \"#utility.yul\":5766:5773   */\n      dup7\n        /* \"#utility.yul\":5762:5785   */\n      sub\n        /* \"#utility.yul\":5758:5790   */\n      slt\n        /* \"#utility.yul\":5755:5874   */\n      iszero\n      tag_213\n      jumpi\n        /* \"#utility.yul\":5793:5872   */\n      tag_214\n      tag_98\n      jump\t// in\n    tag_214:\n        /* \"#utility.yul\":5755:5874   */\n    tag_213:\n        /* \"#utility.yul\":5941:5942   */\n      0x00\n        /* \"#utility.yul\":5930:5939   */\n      dup5\n        /* \"#utility.yul\":5926:5943   */\n      add\n        /* \"#utility.yul\":5913:5944   */\n      calldataload\n        /* \"#utility.yul\":5971:5989   */\n      0xffffffffffffffff\n        /* \"#utility.yul\":5963:5969   */\n      dup2\n        /* \"#utility.yul\":5960:5990   */\n      gt\n        /* \"#utility.yul\":5957:6074   */\n      iszero\n      tag_215\n      jumpi\n        /* \"#utility.yul\":5993:6072   */\n      tag_216\n      tag_99\n      jump\t// in\n    tag_216:\n        /* \"#utility.yul\":5957:6074   */\n    tag_215:\n        /* \"#utility.yul\":6098:6161   */\n      tag_217\n        /* \"#utility.yul\":6153:6160   */\n      dup7\n        /* \"#utility.yul\":6144:6150   */\n      dup3\n        /* \"#utility.yul\":6133:6142   */\n      dup8\n        /* \"#utility.yul\":6129:6151   */\n      add\n        /* \"#utility.yul\":6098:6161   */\n      tag_120\n      jump\t// in\n    tag_217:\n        /* \"#utility.yul\":6088:6161   */\n      swap4\n      pop\n        /* \"#utility.yul\":5884:6171   */\n      pop\n        /* \"#utility.yul\":6210:6212   */\n      0x20\n        /* \"#utility.yul\":6236:6289   */\n      tag_218\n        /* \"#utility.yul\":6281:6288   */\n      dup7\n        /* \"#utility.yul\":6272:6278   */\n      dup3\n        /* \"#utility.yul\":6261:6270   */\n      dup8\n        /* \"#utility.yul\":6257:6279   */\n      add\n        /* \"#utility.yul\":6236:6289   */\n      tag_102\n      jump\t// in\n    tag_218:\n        /* \"#utility.yul\":6226:6289   */\n      swap3\n      pop\n        /* \"#utility.yul\":6181:6299   */\n      pop\n        /* \"#utility.yul\":6338:6340   */\n      0x40\n        /* \"#utility.yul\":6364:6425   */\n      tag_219\n        /* \"#utility.yul\":6417:6424   */\n      dup7\n        /* \"#utility.yul\":6408:6414   */\n      dup3\n        /* \"#utility.yul\":6397:6406   */\n      dup8\n        /* \"#utility.yul\":6393:6415   */\n      add\n        /* \"#utility.yul\":6364:6425   */\n      tag_123\n      jump\t// in\n    tag_219:\n        /* \"#utility.yul\":6354:6425   */\n      swap2\n      pop\n        /* \"#utility.yul\":6309:6435   */\n      pop\n        /* \"#utility.yul\":5627:6442   */\n      swap3\n      pop\n      swap3\n      pop\n      swap3\n      jump\t// out\n        /* \"#utility.yul\":6448:6617   */\n    tag_124:\n        /* \"#utility.yul\":6532:6543   */\n      0x00\n        /* \"#utility.yul\":6566:6572   */\n      dup3\n        /* \"#utility.yul\":6561:6564   */\n      dup3\n        /* \"#utility.yul\":6554:6573   */\n      mstore\n        /* \"#utility.yul\":6606:6610   */\n      0x20\n        /* \"#utility.yul\":6601:6604   */\n      dup3\n        /* \"#utility.yul\":6597:6611   */\n      add\n        /* \"#utility.yul\":6582:6611   */\n      swap1\n      pop\n        /* \"#utility.yul\":6448:6617   */\n      swap3\n      swap2\n      pop\n      pop\n      jump\t// out\n        /* \"#utility.yul\":6623:6803   */\n    tag_125:\n        /* \"#utility.yul\":6763:6795   */\n      0x526571756573742077617320616c72656164792066696e616c697a65642e0000\n        /* \"#utility.yul\":6759:6760   */\n      0x00\n        /* \"#utility.yul\":6751:6757   */\n      dup3\n        /* \"#utility.yul\":6747:6761   */\n      add\n        /* \"#utility.yul\":6740:6796   */\n      mstore\n        /* \"#utility.yul\":6623:6803   */\n      pop\n      jump\t// out\n        /* \"#utility.yul\":6809:7175   */\n    tag_126:\n        /* \"#utility.yul\":6951:6954   */\n      0x00\n        /* \"#utility.yul\":6972:7039   */\n      tag_223\n        /* \"#utility.yul\":7036:7038   */\n      0x1e\n        /* \"#utility.yul\":7031:7034   */\n      dup4\n        /* \"#utility.yul\":6972:7039   */\n      tag_124\n      jump\t// in\n    tag_223:\n        /* \"#utility.yul\":6965:7039   */\n      swap2\n      pop\n        /* \"#utility.yul\":7048:7141   */\n      tag_224\n        /* \"#utility.yul\":7137:7140   */\n      dup3\n        /* \"#utility.yul\":7048:7141   */\n      tag_125\n      jump\t// in\n    tag_224:\n        /* \"#utility.yul\":7166:7168   */\n      0x20\n        /* \"#utility.yul\":7161:7164   */\n      dup3\n        /* \"#utility.yul\":7157:7169   */\n      add\n        /* \"#utility.yul\":7150:7169   */\n      swap1\n      pop\n        /* \"#utility.yul\":6809:7175   */\n      swap2\n      swap1\n      pop\n      jump\t// out\n        /* \"#utility.yul\":7181:7600   */\n    tag_53:\n        /* \"#utility.yul\":7347:7351   */\n      0x00\n        /* \"#utility.yul\":7385:7387   */\n      0x20\n        /* \"#utility.yul\":7374:7383   */\n      dup3\n        /* \"#utility.yul\":7370:7388   */\n      add\n        /* \"#utility.yul\":7362:7388   */\n      swap1\n      pop\n        /* \"#utility.yul\":7434:7443   */\n      dup2\n        /* \"#utility.yul\":7428:7432   */\n      dup2\n        /* \"#utility.yul\":7424:7444   */\n      sub\n        /* \"#utility.yul\":7420:7421   */\n      0x00\n        /* \"#utility.yul\":7409:7418   */\n      dup4\n        /* \"#utility.yul\":7405:7422   */\n      add\n        /* \"#utility.yul\":7398:7445   */\n      mstore\n        /* \"#utility.yul\":7462:7593   */\n      tag_226\n        /* \"#utility.yul\":7588:7592   */\n      dup2\n        /* \"#utility.yul\":7462:7593   */\n      tag_126\n      jump\t// in\n    tag_226:\n        /* \"#utility.yul\":7454:7593   */\n      swap1\n      pop\n        /* \"#utility.yul\":7181:7600   */\n      swap2\n      swap1\n      pop\n      jump\t// out\n        /* \"#utility.yul\":7606:7786   */\n    tag_127:\n        /* \"#utility.yul\":7654:7731   */\n      0x4e487b7100000000000000000000000000000000000000000000000000000000\n        /* \"#utility.yul\":7651:7652   */\n      0x00\n        /* \"#utility.yul\":7644:7732   */\n      mstore\n        /* \"#utility.yul\":7751:7755   */\n      0x12\n        /* \"#utility.yul\":7748:7749   */\n      0x04\n        /* \"#utility.yul\":7741:7756   */\n      mstore\n        /* \"#utility.yul\":7775:7779   */\n      0x24\n        /* \"#utility.yul\":7772:7773   */\n      0x00\n        /* \"#utility.yul\":7765:7780   */\n      revert\n        /* \"#utility.yul\":7792:7972   */\n    tag_128:\n        /* \"#utility.yul\":7840:7917   */\n      0x4e487b7100000000000000000000000000000000000000000000000000000000\n        /* \"#utility.yul\":7837:7838   */\n      0x00\n        /* \"#utility.yul\":7830:7918   */\n      mstore\n        /* \"#utility.yul\":7937:7941   */\n      0x11\n        /* \"#utility.yul\":7934:7935   */\n      0x04\n        /* \"#utility.yul\":7927:7942   */\n      mstore\n        /* \"#utility.yul\":7961:7965   */\n      0x24\n        /* \"#utility.yul\":7958:7959   */\n      0x00\n        /* \"#utility.yul\":7951:7966   */\n      revert\n        /* \"#utility.yul\":7978:8163   */\n    tag_55:\n        /* \"#utility.yul\":8018:8019   */\n      0x00\n        /* \"#utility.yul\":8035:8055   */\n      tag_230\n        /* \"#utility.yul\":8053:8054   */\n      dup3\n        /* \"#utility.yul\":8035:8055   */\n      tag_100\n      jump\t// in\n    tag_230:\n        /* \"#utility.yul\":8030:8055   */\n      swap2\n      pop\n        /* \"#utility.yul\":8069:8089   */\n      tag_231\n        /* \"#utility.yul\":8087:8088   */\n      dup4\n        /* \"#utility.yul\":8069:8089   */\n      tag_100\n      jump\t// in\n    tag_231:\n        /* \"#utility.yul\":8064:8089   */\n      swap3\n      pop\n        /* \"#utility.yul\":8108:8109   */\n      dup3\n        /* \"#utility.yul\":8098:8133   */\n      tag_232\n      jumpi\n        /* \"#utility.yul\":8113:8131   */\n      tag_233\n      tag_127\n      jump\t// in\n    tag_233:\n        /* \"#utility.yul\":8098:8133   */\n    tag_232:\n        /* \"#utility.yul\":8155:8156   */\n      dup3\n        /* \"#utility.yul\":8152:8153   */\n      dup3\n        /* \"#utility.yul\":8148:8157   */\n      div\n        /* \"#utility.yul\":8143:8157   */\n      swap1\n      pop\n        /* \"#utility.yul\":7978:8163   */\n      swap3\n      swap2\n      pop\n      pop\n      jump\t// out\n        /* \"#utility.yul\":8169:8340   */\n    tag_129:\n        /* \"#utility.yul\":8309:8332   */\n      0x4e6f7420656e6f75676820617070726f76616c732e0000000000000000000000\n        /* \"#utility.yul\":8305:8306   */\n      0x00\n        /* \"#utility.yul\":8297:8303   */\n      dup3\n        /* \"#utility.yul\":8293:8307   */\n      add\n        /* \"#utility.yul\":8286:8333   */\n      mstore\n        /* \"#utility.yul\":8169:8340   */\n      pop\n      jump\t// out\n        /* \"#utility.yul\":8346:8712   */\n    tag_130:\n        /* \"#utility.yul\":8488:8491   */\n      0x00\n        /* \"#utility.yul\":8509:8576   */\n      tag_236\n        /* \"#utility.yul\":8573:8575   */\n      0x15\n        /* \"#utility.yul\":8568:8571   */\n      dup4\n        /* \"#utility.yul\":8509:8576   */\n      tag_124\n      jump\t// in\n    tag_236:\n        /* \"#utility.yul\":8502:8576   */\n      swap2\n      pop\n        /* \"#utility.yul\":8585:8678   */\n      tag_237\n        /* \"#utility.yul\":8674:8677   */\n      dup3\n        /* \"#utility.yul\":8585:8678   */\n      tag_129\n      jump\t// in\n    tag_237:\n        /* \"#utility.yul\":8703:8705   */\n      0x20\n        /* \"#utility.yul\":8698:8701   */\n      dup3\n        /* \"#utility.yul\":8694:8706   */\n      add\n        /* \"#utility.yul\":8687:8706   */\n      swap1\n      pop\n        /* \"#utility.yul\":8346:8712   */\n      swap2\n      swap1\n      pop\n      jump\t// out\n        /* \"#utility.yul\":8718:9137   */\n    tag_58:\n        /* \"#utility.yul\":8884:8888   */\n      0x00\n        /* \"#utility.yul\":8922:8924   */\n      0x20\n        /* \"#utility.yul\":8911:8920   */\n      dup3\n        /* \"#utility.yul\":8907:8925   */\n      add\n        /* \"#utility.yul\":8899:8925   */\n      swap1\n      pop\n        /* \"#utility.yul\":8971:8980   */\n      dup2\n        /* \"#utility.yul\":8965:8969   */\n      dup2\n        /* \"#utility.yul\":8961:8981   */\n      sub\n        /* \"#utility.yul\":8957:8958   */\n      0x00\n        /* \"#utility.yul\":8946:8955   */\n      dup4\n        /* \"#utility.yul\":8942:8959   */\n      add\n        /* \"#utility.yul\":8935:8982   */\n      mstore\n        /* \"#utility.yul\":8999:9130   */\n      tag_239\n        /* \"#utility.yul\":9125:9129   */\n      dup2\n        /* \"#utility.yul\":8999:9130   */\n      tag_130\n      jump\t// in\n    tag_239:\n        /* \"#utility.yul\":8991:9130   */\n      swap1\n      pop\n        /* \"#utility.yul\":8718:9137   */\n      swap2\n      swap1\n      pop\n      jump\t// out\n        /* \"#utility.yul\":9143:9369   */\n    tag_131:\n        /* \"#utility.yul\":9283:9317   */\n      0x4e6f7420656e6f756768206d6f6e657920746f20726571756573742074686174\n        /* \"#utility.yul\":9279:9280   */\n      0x00\n        /* \"#utility.yul\":9271:9277   */\n      dup3\n        /* \"#utility.yul\":9267:9281   */\n      add\n        /* \"#utility.yul\":9260:9318   */\n      mstore\n        /* \"#utility.yul\":9352:9361   */\n      0x20616d6f756e7400000000000000000000000000000000000000000000000000\n        /* \"#utility.yul\":9347:9349   */\n      0x20\n        /* \"#utility.yul\":9339:9345   */\n      dup3\n        /* \"#utility.yul\":9335:9350   */\n      add\n        /* \"#utility.yul\":9328:9362   */\n      mstore\n        /* \"#utility.yul\":9143:9369   */\n      pop\n      jump\t// out\n        /* \"#utility.yul\":9375:9741   */\n    tag_132:\n        /* \"#utility.yul\":9517:9520   */\n      0x00\n        /* \"#utility.yul\":9538:9605   */\n      tag_242\n        /* \"#utility.yul\":9602:9604   */\n      0x27\n        /* \"#utility.yul\":9597:9600   */\n      dup4\n        /* \"#utility.yul\":9538:9605   */\n      tag_124\n      jump\t// in\n    tag_242:\n        /* \"#utility.yul\":9531:9605   */\n      swap2\n      pop\n        /* \"#utility.yul\":9614:9707   */\n      tag_243\n        /* \"#utility.yul\":9703:9706   */\n      dup3\n        /* \"#utility.yul\":9614:9707   */\n      tag_131\n      jump\t// in\n    tag_243:\n        /* \"#utility.yul\":9732:9734   */\n      0x40\n        /* \"#utility.yul\":9727:9730   */\n      dup3\n        /* \"#utility.yul\":9723:9735   */\n      add\n        /* \"#utility.yul\":9716:9735   */\n      swap1\n      pop\n        /* \"#utility.yul\":9375:9741   */\n      swap2\n      swap1\n      pop\n      jump\t// out\n        /* \"#utility.yul\":9747:10166   */\n    tag_66:\n        /* \"#utility.yul\":9913:9917   */\n      0x00\n        /* \"#utility.yul\":9951:9953   */\n      0x20\n        /* \"#utility.yul\":9940:9949   */\n      dup3\n        /* \"#utility.yul\":9936:9954   */\n      add\n        /* \"#utility.yul\":9928:9954   */\n      swap1\n      pop\n        /* \"#utility.yul\":10000:10009   */\n      dup2\n        /* \"#utility.yul\":9994:9998   */\n      dup2\n        /* \"#utility.yul\":9990:10010   */\n      sub\n        /* \"#utility.yul\":9986:9987   */\n      0x00\n        /* \"#utility.yul\":9975:9984   */\n      dup4\n        /* \"#utility.yul\":9971:9988   */\n      add\n        /* \"#utility.yul\":9964:10011   */\n      mstore\n        /* \"#utility.yul\":10028:10159   */\n      tag_245\n        /* \"#utility.yul\":10154:10158   */\n      dup2\n        /* \"#utility.yul\":10028:10159   */\n      tag_132\n      jump\t// in\n    tag_245:\n        /* \"#utility.yul\":10020:10159   */\n      swap1\n      pop\n        /* \"#utility.yul\":9747:10166   */\n      swap2\n      swap1\n      pop\n      jump\t// out\n        /* \"#utility.yul\":10172:10405   */\n    tag_68:\n        /* \"#utility.yul\":10211:10214   */\n      0x00\n        /* \"#utility.yul\":10234:10258   */\n      tag_247\n        /* \"#utility.yul\":10252:10257   */\n      dup3\n        /* \"#utility.yul\":10234:10258   */\n      tag_100\n      jump\t// in\n    tag_247:\n        /* \"#utility.yul\":10225:10258   */\n      swap2\n      pop\n        /* \"#utility.yul\":10280:10346   */\n      0xffffffffffffffffffffffffffffffffffffffffffffffffffffffffffffffff\n        /* \"#utility.yul\":10273:10278   */\n      dup3\n        /* \"#utility.yul\":10270:10347   */\n      eq\n        /* \"#utility.yul\":10267:10370   */\n      iszero\n      tag_248\n      jumpi\n        /* \"#utility.yul\":10350:10368   */\n      tag_249\n      tag_128\n      jump\t// in\n    tag_249:\n        /* \"#utility.yul\":10267:10370   */\n    tag_248:\n        /* \"#utility.yul\":10397:10398   */\n      0x01\n        /* \"#utility.yul\":10390:10395   */\n      dup3\n        /* \"#utility.yul\":10386:10399   */\n      add\n        /* \"#utility.yul\":10379:10399   */\n      swap1\n      pop\n        /* \"#utility.yul\":10172:10405   */\n      swap2\n      swap1\n      pop\n      jump\t// out\n        /* \"#utility.yul\":10411:10654   */\n    tag_133:\n        /* \"#utility.yul\":10551:10585   */\n      0x416d6f756e742073656e74206973206c657373207468616e20746865206d696e\n        /* \"#utility.yul\":10547:10548   */\n      0x00\n        /* \"#utility.yul\":10539:10545   */\n      dup3\n        /* \"#utility.yul\":10535:10549   */\n      add\n        /* \"#utility.yul\":10528:10586   */\n      mstore\n        /* \"#utility.yul\":10620:10646   */\n      0x696d756d20636f6e747269627574696f6e206c696d69742e0000000000000000\n        /* \"#utility.yul\":10615:10617   */\n      0x20\n        /* \"#utility.yul\":10607:10613   */\n      dup3\n        /* \"#utility.yul\":10603:10618   */\n      add\n        /* \"#utility.yul\":10596:10647   */\n      mstore\n        /* \"#utility.yul\":10411:10654   */\n      pop\n      jump\t// out\n        /* \"#utility.yul\":10660:11026   */\n    tag_134:\n        /* \"#utility.yul\":10802:10805   */\n      0x00\n        /* \"#utility.yul\":10823:10890   */\n      tag_252\n        /* \"#utility.yul\":10887:10889   */\n      0x38\n        /* \"#utility.yul\":10882:10885   */\n      dup4\n        /* \"#utility.yul\":10823:10890   */\n      tag_124\n      jump\t// in\n    tag_252:\n        /* \"#utility.yul\":10816:10890   */\n      swap2\n      pop\n        /* \"#utility.yul\":10899:10992   */\n      tag_253\n        /* \"#utility.yul\":10988:10991   */\n      dup3\n        /* \"#utility.yul\":10899:10992   */\n      tag_133\n      jump\t// in\n    tag_253:\n        /* \"#utility.yul\":11017:11019   */\n      0x40\n        /* \"#utility.yul\":11012:11015   */\n      dup3\n        /* \"#utility.yul\":11008:11020   */\n      add\n        /* \"#utility.yul\":11001:11020   */\n      swap1\n      pop\n        /* \"#utility.yul\":10660:11026   */\n      swap2\n      swap1\n      pop\n      jump\t// out\n        /* \"#utility.yul\":11032:11451   */\n    tag_74:\n        /* \"#utility.yul\":11198:11202   */\n      0x00\n        /* \"#utility.yul\":11236:11238   */\n      0x20\n        /* \"#utility.yul\":11225:11234   */\n      dup3\n        /* \"#utility.yul\":11221:11239   */\n      add\n        /* \"#utility.yul\":11213:11239   */\n      swap1\n      pop\n        /* \"#utility.yul\":11285:11294   */\n      dup2\n        /* \"#utility.yul\":11279:11283   */\n      dup2\n        /* \"#utility.yul\":11275:11295   */\n      sub\n        /* \"#utility.yul\":11271:11272   */\n      0x00\n        /* \"#utility.yul\":11260:11269   */\n      dup4\n        /* \"#utility.yul\":11256:11273   */\n      add\n        /* \"#utility.yul\":11249:11296   */\n      mstore\n        /* \"#utility.yul\":11313:11444   */\n      tag_255\n        /* \"#utility.yul\":11439:11443   */\n      dup2\n        /* \"#utility.yul\":11313:11444   */\n      tag_134\n      jump\t// in\n    tag_255:\n        /* \"#utility.yul\":11305:11444   */\n      swap1\n      pop\n        /* \"#utility.yul\":11032:11451   */\n      swap2\n      swap1\n      pop\n      jump\t// out\n        /* \"#utility.yul\":11457:11631   */\n    tag_135:\n        /* \"#utility.yul\":11597:11623   */\n      0x596f7520617265206e6f7420616e20617070726f7665722e0000000000000000\n        /* \"#utility.yul\":11593:11594   */\n      0x00\n        /* \"#utility.yul\":11585:11591   */\n      dup3\n        /* \"#utility.yul\":11581:11595   */\n      add\n        /* \"#utility.yul\":11574:11624   */\n      mstore\n        /* \"#utility.yul\":11457:11631   */\n      pop\n      jump\t// out\n        /* \"#utility.yul\":11637:12003   */\n    tag_136:\n        /* \"#utility.yul\":11779:11782   */\n      0x00\n        /* \"#utility.yul\":11800:11867   */\n      tag_258\n        /* \"#utility.yul\":11864:11866   */\n      0x18\n        /* \"#utility.yul\":11859:11862   */\n      dup4\n        /* \"#utility.yul\":11800:11867   */\n      tag_124\n      jump\t// in\n    tag_258:\n        /* \"#utility.yul\":11793:11867   */\n      swap2\n      pop\n        /* \"#utility.yul\":11876:11969   */\n      tag_259\n        /* \"#utility.yul\":11965:11968   */\n      dup3\n        /* \"#utility.yul\":11876:11969   */\n      tag_135\n      jump\t// in\n    tag_259:\n        /* \"#utility.yul\":11994:11996   */\n      0x20\n        /* \"#utility.yul\":11989:11992   */\n      dup3\n        /* \"#utility.yul\":11985:11997   */\n      add\n        /* \"#utility.yul\":11978:11997   */\n      swap1\n      pop\n        /* \"#utility.yul\":11637:12003   */\n      swap2\n      swap1\n      pop\n      jump\t// out\n        /* \"#utility.yul\":12009:12428   */\n    tag_79:\n        /* \"#utility.yul\":12175:12179   */\n      0x00\n        /* \"#utility.yul\":12213:12215   */\n      0x20\n        /* \"#utility.yul\":12202:12211   */\n      dup3\n        /* \"#utility.yul\":12198:12216   */\n      add\n        /* \"#utility.yul\":12190:12216   */\n      swap1\n      pop\n        /* \"#utility.yul\":12262:12271   */\n      dup2\n        /* \"#utility.yul\":12256:12260   */\n      dup2\n        /* \"#utility.yul\":12252:12272   */\n      sub\n        /* \"#utility.yul\":12248:12249   */\n      0x00\n        /* \"#utility.yul\":12237:12246   */\n      dup4\n        /* \"#utility.yul\":12233:12250   */\n      add\n        /* \"#utility.yul\":12226:12273   */\n      mstore\n        /* \"#utility.yul\":12290:12421   */\n      tag_261\n        /* \"#utility.yul\":12416:12420   */\n      dup2\n        /* \"#utility.yul\":12290:12421   */\n      tag_136\n      jump\t// in\n    tag_261:\n        /* \"#utility.yul\":12282:12421   */\n      swap1\n      pop\n        /* \"#utility.yul\":12009:12428   */\n      swap2\n      swap1\n      pop\n      jump\t// out\n        /* \"#utility.yul\":12434:12660   */\n    tag_137:\n        /* \"#utility.yul\":12574:12608   */\n      0x596f75206861766520616c726561647920766f746564206f6e20746869732072\n        /* \"#utility.yul\":12570:12571   */\n      0x00\n        /* \"#utility.yul\":12562:12568   */\n      dup3\n        /* \"#utility.yul\":12558:12572   */\n      add\n        /* \"#utility.yul\":12551:12609   */\n      mstore\n        /* \"#utility.yul\":12643:12652   */\n      0x6571756573742e00000000000000000000000000000000000000000000000000\n        /* \"#utility.yul\":12638:12640   */\n      0x20\n        /* \"#utility.yul\":12630:12636   */\n      dup3\n        /* \"#utility.yul\":12626:12641   */\n      add\n        /* \"#utility.yul\":12619:12653   */\n      mstore\n        /* \"#utility.yul\":12434:12660   */\n      pop\n      jump\t// out\n        /* \"#utility.yul\":12666:13032   */\n    tag_138:\n        /* \"#utility.yul\":12808:12811   */\n      0x00\n        /* \"#utility.yul\":12829:12896   */\n      tag_264\n        /* \"#utility.yul\":12893:12895   */\n      0x27\n        /* \"#utility.yul\":12888:12891   */\n      dup4\n        /* \"#utility.yul\":12829:12896   */\n      tag_124\n      jump\t// in\n    tag_264:\n        /* \"#utility.yul\":12822:12896   */\n      swap2\n      pop\n        /* \"#utility.yul\":12905:12998   */\n      tag_265\n        /* \"#utility.yul\":12994:12997   */\n      dup3\n        /* \"#utility.yul\":12905:12998   */\n      tag_137\n      jump\t// in\n    tag_265:\n        /* \"#utility.yul\":13023:13025   */\n      0x40\n        /* \"#utility.yul\":13018:13021   */\n      dup3\n        /* \"#utility.yul\":13014:13026   */\n      add\n        /* \"#utility.yul\":13007:13026   */\n      swap1\n      pop\n        /* \"#utility.yul\":12666:13032   */\n      swap2\n      swap1\n      pop\n      jump\t// out\n        /* \"#utility.yul\":13038:13457   */\n    tag_82:\n        /* \"#utility.yul\":13204:13208   */\n      0x00\n        /* \"#utility.yul\":13242:13244   */\n      0x20\n        /* \"#utility.yul\":13231:13240   */\n      dup3\n        /* \"#utility.yul\":13227:13245   */\n      add\n        /* \"#utility.yul\":13219:13245   */\n      swap1\n      pop\n        /* \"#utility.yul\":13291:13300   */\n      dup2\n        /* \"#utility.yul\":13285:13289   */\n      dup2\n        /* \"#utility.yul\":13281:13301   */\n      sub\n        /* \"#utility.yul\":13277:13278   */\n      0x00\n        /* \"#utility.yul\":13266:13275   */\n      dup4\n        /* \"#utility.yul\":13262:13279   */\n      add\n        /* \"#utility.yul\":13255:13302   */\n      mstore\n        /* \"#utility.yul\":13319:13450   */\n      tag_267\n        /* \"#utility.yul\":13445:13449   */\n      dup2\n        /* \"#utility.yul\":13319:13450   */\n      tag_138\n      jump\t// in\n    tag_267:\n        /* \"#utility.yul\":13311:13450   */\n      swap1\n      pop\n        /* \"#utility.yul\":13038:13457   */\n      swap2\n      swap1\n      pop\n      jump\t// out\n        /* \"#utility.yul\":13463:13643   */\n    tag_139:\n        /* \"#utility.yul\":13511:13588   */\n      0x4e487b7100000000000000000000000000000000000000000000000000000000\n        /* \"#utility.yul\":13508:13509   */\n      0x00\n        /* \"#utility.yul\":13501:13589   */\n      mstore\n        /* \"#utility.yul\":13608:13612   */\n      0x22\n        /* \"#utility.yul\":13605:13606   */\n      0x04\n        /* \"#utility.yul\":13598:13613   */\n      mstore\n        /* \"#utility.yul\":13632:13636   */\n      0x24\n        /* \"#utility.yul\":13629:13630   */\n      0x00\n        /* \"#utility.yul\":13622:13637   */\n      revert\n        /* \"#utility.yul\":13649:13969   */\n    tag_87:\n        /* \"#utility.yul\":13693:13699   */\n      0x00\n        /* \"#utility.yul\":13730:13731   */\n      0x02\n        /* \"#utility.yul\":13724:13728   */\n      dup3\n        /* \"#utility.yul\":13720:13732   */\n      div\n        /* \"#utility.yul\":13710:13732   */\n      swap1\n      pop\n        /* \"#utility.yul\":13777:13778   */\n      0x01\n        /* \"#utility.yul\":13771:13775   */\n      dup3\n        /* \"#utility.yul\":13767:13779   */\n      and\n        /* \"#utility.yul\":13798:13816   */\n      dup1\n        /* \"#utility.yul\":13788:13869   */\n      tag_270\n      jumpi\n        /* \"#utility.yul\":13854:13858   */\n      0x7f\n        /* \"#utility.yul\":13846:13852   */\n      dup3\n        /* \"#utility.yul\":13842:13859   */\n      and\n        /* \"#utility.yul\":13832:13859   */\n      swap2\n      pop\n        /* \"#utility.yul\":13788:13869   */\n    tag_270:\n        /* \"#utility.yul\":13916:13918   */\n      0x20\n        /* \"#utility.yul\":13908:13914   */\n      dup3\n        /* \"#utility.yul\":13905:13919   */\n      lt\n        /* \"#utility.yul\":13885:13903   */\n      dup2\n        /* \"#utility.yul\":13882:13920   */\n      eq\n        /* \"#utility.yul\":13879:13963   */\n      iszero\n      tag_271\n      jumpi\n        /* \"#utility.yul\":13935:13953   */\n      tag_272\n      tag_139\n      jump\t// in\n    tag_272:\n        /* \"#utility.yul\":13879:13963   */\n    tag_271:\n        /* \"#utility.yul\":13700:13969   */\n      pop\n        /* \"#utility.yul\":13649:13969   */\n      swap2\n      swap1\n      pop\n      jump\t// out\n\n    auxdata: 0xa2646970667358221220d3346dfe2c5502f59424bdfe4c2aaa3acf9dff67de7272586ffc11ebb4b6cd5e64736f6c634300080b0033\n}\n","bytecode":{"linkReferences":{},"object":"60806040523480156200001157600080fd5b50604051620011f9380380620011f983398181016040528101906200003791906200012c565b80600160006101000a81548173ffffffffffffffffffffffffffffffffffffffff021916908373ffffffffffffffffffffffffffffffffffffffff16021790555081600281905550505062000173565b600080fd5b6000819050919050565b620000a1816200008c565b8114620000ad57600080fd5b50565b600081519050620000c18162000096565b92915050565b600073ffffffffffffffffffffffffffffffffffffffff82169050919050565b6000620000f482620000c7565b9050919050565b6200010681620000e7565b81146200011257600080fd5b50565b6000815190506200012681620000fb565b92915050565b6000806040838503121562000146576200014562000087565b5b60006200015685828601620000b0565b9250506020620001698582860162000115565b9150509250929050565b61107680620001836000396000f3fe60806040526004361061007b5760003560e01c80638a9cfd551161004e5780638a9cfd551461013c578063937e09b114610165578063d7bb99ba14610190578063d7d1bbdb1461019a5761007b565b806303441006146100805780630a144391146100a9578063481c6a75146100e657806382fde09314610111575b600080fd5b34801561008c57600080fd5b506100a760048036038101906100a291906108c7565b6101c3565b005b3480156100b557600080fd5b506100d060048036038101906100cb9190610952565b61036f565b6040516100dd919061099a565b60405180910390f35b3480156100f257600080fd5b506100fb61038f565b60405161010891906109c4565b60405180910390f35b34801561011d57600080fd5b506101266103b5565b60405161013391906109ee565b60405180910390f35b34801561014857600080fd5b50610163600480360381019061015e9190610b8d565b6103bb565b005b34801561017157600080fd5b5061017a610516565b60405161018791906109ee565b60405180910390f35b61019861051c565b005b3480156101a657600080fd5b506101c160048036038101906101bc91906108c7565b6105d3565b005b600160009054906101000a900473ffffffffffffffffffffffffffffffffffffffff1673ffffffffffffffffffffffffffffffffffffffff163373ffffffffffffffffffffffffffffffffffffffff161461021d57600080fd5b60008060008381526020019081526020016000209050600015158160020160149054906101000a900460ff1615151461028b576040517f08c379a000000000000000000000000000000000000000000000000000000000815260040161028290610c59565b60405180910390fd5b600260045461029a9190610cd7565b8160030154116102df576040517f08c379a00000000000000000000000000000000000000000000000000000000081526004016102d690610d54565b60405180910390fd5b8060020160009054906101000a900473ffffffffffffffffffffffffffffffffffffffff1673ffffffffffffffffffffffffffffffffffffffff166108fc82600101549081150290604051600060405180830381858888f1935050505015801561034d573d6000803e3d6000fd5b5060018160020160146101000a81548160ff0219169083151502179055505050565b60036020528060005260406000206000915054906101000a900460ff1681565b600160009054906101000a900473ffffffffffffffffffffffffffffffffffffffff1681565b60045481565b600160009054906101000a900473ffffffffffffffffffffffffffffffffffffffff1673ffffffffffffffffffffffffffffffffffffffff163373ffffffffffffffffffffffffffffffffffffffff161461041557600080fd5b47821115610458576040517f08c379a000000000000000000000000000000000000000000000000000000000815260040161044f90610de6565b60405180910390fd5b60008060006006600081548092919061047090610e06565b91905055815260200190815260200160002090508381600001908051906020019061049c9291906107da565b50828160010181905550818160020160006101000a81548173ffffffffffffffffffffffffffffffffffffffff021916908373ffffffffffffffffffffffffffffffffffffffff16021790555060008160020160146101000a81548160ff0219169083151502179055506000816003018190555050505050565b60025481565b600254341015610561576040517f08c379a000000000000000000000000000000000000000000000000000000000815260040161055890610ec1565b60405180910390fd5b6001600360003373ffffffffffffffffffffffffffffffffffffffff1673ffffffffffffffffffffffffffffffffffffffff16815260200190815260200160002060006101000a81548160ff021916908315150217905550600460008154809291906105cc90610e06565b9190505550565b60008060008381526020019081526020016000209050600360003373ffffffffffffffffffffffffffffffffffffffff1673ffffffffffffffffffffffffffffffffffffffff16815260200190815260200160002060009054906101000a900460ff16610675576040517f08c379a000000000000000000000000000000000000000000000000000000000815260040161066c90610f2d565b60405180910390fd5b600015158160040160003373ffffffffffffffffffffffffffffffffffffffff1673ffffffffffffffffffffffffffffffffffffffff16815260200190815260200160002060009054906101000a900460ff1615151461070a576040517f08c379a000000000000000000000000000000000000000000000000000000000815260040161070190610fbf565b60405180910390fd5b600015158160020160149054906101000a900460ff16151514610762576040517f08c379a000000000000000000000000000000000000000000000000000000000815260040161075990610c59565b60405180910390fd5b60018160040160003373ffffffffffffffffffffffffffffffffffffffff1673ffffffffffffffffffffffffffffffffffffffff16815260200190815260200160002060006101000a81548160ff0219169083151502179055508060030160008154809291906107d190610e06565b91905055505050565b8280546107e69061100e565b90600052602060002090601f016020900481019282610808576000855561084f565b82601f1061082157805160ff191683800117855561084f565b8280016001018555821561084f579182015b8281111561084e578251825591602001919060010190610833565b5b50905061085c9190610860565b5090565b5b80821115610879576000816000905550600101610861565b5090565b6000604051905090565b600080fd5b600080fd5b6000819050919050565b6108a481610891565b81146108af57600080fd5b50565b6000813590506108c18161089b565b92915050565b6000602082840312156108dd576108dc610887565b5b60006108eb848285016108b2565b91505092915050565b600073ffffffffffffffffffffffffffffffffffffffff82169050919050565b600061091f826108f4565b9050919050565b61092f81610914565b811461093a57600080fd5b50565b60008135905061094c81610926565b92915050565b60006020828403121561096857610967610887565b5b60006109768482850161093d565b91505092915050565b60008115159050919050565b6109948161097f565b82525050565b60006020820190506109af600083018461098b565b92915050565b6109be81610914565b82525050565b60006020820190506109d960008301846109b5565b92915050565b6109e881610891565b82525050565b6000602082019050610a0360008301846109df565b92915050565b600080fd5b600080fd5b6000601f19601f8301169050919050565b7f4e487b7100000000000000000000000000000000000000000000000000000000600052604160045260246000fd5b610a5c82610a13565b810181811067ffffffffffffffff82111715610a7b57610a7a610a24565b5b80604052505050565b6000610a8e61087d565b9050610a9a8282610a53565b919050565b600067ffffffffffffffff821115610aba57610ab9610a24565b5b610ac382610a13565b9050602081019050919050565b82818337600083830152505050565b6000610af2610aed84610a9f565b610a84565b905082815260208101848484011115610b0e57610b0d610a0e565b5b610b19848285610ad0565b509392505050565b600082601f830112610b3657610b35610a09565b5b8135610b46848260208601610adf565b91505092915050565b6000610b5a826108f4565b9050919050565b610b6a81610b4f565b8114610b7557600080fd5b50565b600081359050610b8781610b61565b92915050565b600080600060608486031215610ba657610ba5610887565b5b600084013567ffffffffffffffff811115610bc457610bc361088c565b5b610bd086828701610b21565b9350506020610be1868287016108b2565b9250506040610bf286828701610b78565b9150509250925092565b600082825260208201905092915050565b7f526571756573742077617320616c72656164792066696e616c697a65642e0000600082015250565b6000610c43601e83610bfc565b9150610c4e82610c0d565b602082019050919050565b60006020820190508181036000830152610c7281610c36565b9050919050565b7f4e487b7100000000000000000000000000000000000000000000000000000000600052601260045260246000fd5b7f4e487b7100000000000000000000000000000000000000000000000000000000600052601160045260246000fd5b6000610ce282610891565b9150610ced83610891565b925082610cfd57610cfc610c79565b5b828204905092915050565b7f4e6f7420656e6f75676820617070726f76616c732e0000000000000000000000600082015250565b6000610d3e601583610bfc565b9150610d4982610d08565b602082019050919050565b60006020820190508181036000830152610d6d81610d31565b9050919050565b7f4e6f7420656e6f756768206d6f6e657920746f2072657175657374207468617460008201527f20616d6f756e7400000000000000000000000000000000000000000000000000602082015250565b6000610dd0602783610bfc565b9150610ddb82610d74565b604082019050919050565b60006020820190508181036000830152610dff81610dc3565b9050919050565b6000610e1182610891565b91507fffffffffffffffffffffffffffffffffffffffffffffffffffffffffffffffff821415610e4457610e43610ca8565b5b600182019050919050565b7f416d6f756e742073656e74206973206c657373207468616e20746865206d696e60008201527f696d756d20636f6e747269627574696f6e206c696d69742e0000000000000000602082015250565b6000610eab603883610bfc565b9150610eb682610e4f565b604082019050919050565b60006020820190508181036000830152610eda81610e9e565b9050919050565b7f596f7520617265206e6f7420616e20617070726f7665722e0000000000000000600082015250565b6000610f17601883610bfc565b9150610f2282610ee1565b602082019050919050565b60006020820190508181036000830152610f4681610f0a565b9050919050565b7f596f75206861766520616c726561647920766f746564206f6e2074686973207260008201527f6571756573742e00000000000000000000000000000000000000000000000000602082015250565b6000610fa9602783610bfc565b9150610fb482610f4d565b604082019050919050565b60006020820190508181036000830152610fd881610f9c565b9050919050565b7f4e487b7100000000000000000000000000000000000000000000000000000000600052602260045260246000fd5b6000600282049050600182168061102657607f821691505b6020821081141561103a57611039610fdf565b5b5091905056fea2646970667358221220d3346dfe2c5502f59424bdfe4c2aaa3acf9dff67de7272586ffc11ebb4b6cd5e64736f6c634300080b0033","opcodes":"PUSH1 0x80 PUSH1 0x40 MSTORE CALLVALUE DUP1 ISZERO PUSH3 0x11 JUMPI PUSH1 0x0 DUP1 REVERT JUMPDEST POP PUSH1 0x40 MLOAD PUSH3 0x11F9 CODESIZE SUB DUP1 PUSH3 0x11F9 DUP4 CODECOPY DUP2 DUP2 ADD PUSH1 0x40 MSTORE DUP2 ADD SWAP1 PUSH3 0x37 SWAP2 SWAP1 PUSH3 0x12C JUMP JUMPDEST DUP1 PUSH1 0x1 PUSH1 0x0 PUSH2 0x100 EXP DUP2 SLOAD DUP2 PUSH20 0xFFFFFFFFFFFFFFFFFFFFFFFFFFFFFFFFFFFFFFFF MUL NOT AND SWAP1 DUP4 PUSH20 0xFFFFFFFFFFFFFFFFFFFFFFFFFFFFFFFFFFFFFFFF AND MUL OR SWAP1 SSTORE POP DUP2 PUSH1 0x2 DUP2 SWAP1 SSTORE POP POP POP PUSH3 0x173 JUMP JUMPDEST PUSH1 0x0 DUP1 REVERT JUMPDEST PUSH1 0x0 DUP2 SWAP1 POP SWAP2 SWAP1 POP JUMP JUMPDEST PUSH3 0xA1 DUP2 PUSH3 0x8C JUMP JUMPDEST DUP2 EQ PUSH3 0xAD JUMPI PUSH1 0x0 DUP1 REVERT JUMPDEST POP JUMP JUMPDEST PUSH1 0x0 DUP2 MLOAD SWAP1 POP PUSH3 0xC1 DUP2 PUSH3 0x96 JUMP JUMPDEST SWAP3 SWAP2 POP POP JUMP JUMPDEST PUSH1 0x0 PUSH20 0xFFFFFFFFFFFFFFFFFFFFFFFFFFFFFFFFFFFFFFFF DUP3 AND SWAP1 POP SWAP2 SWAP1 POP JUMP JUMPDEST PUSH1 0x0 PUSH3 0xF4 DUP3 PUSH3 0xC7 JUMP JUMPDEST SWAP1 POP SWAP2 SWAP1 POP JUMP JUMPDEST PUSH3 0x106 DUP2 PUSH3 0xE7 JUMP JUMPDEST DUP2 EQ PUSH3 0x112 JUMPI PUSH1 0x0 DUP1 REVERT JUMPDEST POP JUMP JUMPDEST PUSH1 0x0 DUP2 MLOAD SWAP1 POP PUSH3 0x126 DUP2 PUSH3 0xFB JUMP JUMPDEST SWAP3 SWAP2 POP POP JUMP JUMPDEST PUSH1 0x0 DUP1 PUSH1 0x40 DUP4 DUP6 SUB SLT ISZERO PUSH3 0x146 JUMPI PUSH3 0x145 PUSH3 0x87 JUMP JUMPDEST JUMPDEST PUSH1 0x0 PUSH3 0x156 DUP6 DUP3 DUP7 ADD PUSH3 0xB0 JUMP JUMPDEST SWAP3 POP POP PUSH1 0x20 PUSH3 0x169 DUP6 DUP3 DUP7 ADD PUSH3 0x115 JUMP JUMPDEST SWAP2 POP POP SWAP3 POP SWAP3 SWAP1 POP JUMP JUMPDEST PUSH2 0x1076 DUP1 PUSH3 0x183 PUSH1 0x0 CODECOPY PUSH1 0x0 RETURN INVALID PUSH1 0x80 PUSH1 0x40 MSTORE PUSH1 0x4 CALLDATASIZE LT PUSH2 0x7B JUMPI PUSH1 0x0 CALLDATALOAD PUSH1 0xE0 SHR DUP1 PUSH4 0x8A9CFD55 GT PUSH2 0x4E JUMPI DUP1 PUSH4 0x8A9CFD55 EQ PUSH2 0x13C JUMPI DUP1 PUSH4 0x937E09B1 EQ PUSH2 0x165 JUMPI DUP1 PUSH4 0xD7BB99BA EQ PUSH2 0x190 JUMPI DUP1 PUSH4 0xD7D1BBDB EQ PUSH2 0x19A JUMPI PUSH2 0x7B JUMP JUMPDEST DUP1 PUSH4 0x3441006 EQ PUSH2 0x80 JUMPI DUP1 PUSH4 0xA144391 EQ PUSH2 0xA9 JUMPI DUP1 PUSH4 0x481C6A75 EQ PUSH2 0xE6 JUMPI DUP1 PUSH4 0x82FDE093 EQ PUSH2 0x111 JUMPI JUMPDEST PUSH1 0x0 DUP1 REVERT JUMPDEST CALLVALUE DUP1 ISZERO PUSH2 0x8C JUMPI PUSH1 0x0 DUP1 REVERT JUMPDEST POP PUSH2 0xA7 PUSH1 0x4 DUP1 CALLDATASIZE SUB DUP2 ADD SWAP1 PUSH2 0xA2 SWAP2 SWAP1 PUSH2 0x8C7 JUMP JUMPDEST PUSH2 0x1C3 JUMP JUMPDEST STOP JUMPDEST CALLVALUE DUP1 ISZERO PUSH2 0xB5 JUMPI PUSH1 0x0 DUP1 REVERT JUMPDEST POP PUSH2 0xD0 PUSH1 0x4 DUP1 CALLDATASIZE SUB DUP2 ADD SWAP1 PUSH2 0xCB SWAP2 SWAP1 PUSH2 0x952 JUMP JUMPDEST PUSH2 0x36F JUMP JUMPDEST PUSH1 0x40 MLOAD PUSH2 0xDD SWAP2 SWAP1 PUSH2 0x99A JUMP JUMPDEST PUSH1 0x40 MLOAD DUP1 SWAP2 SUB SWAP1 RETURN JUMPDEST CALLVALUE DUP1 ISZERO PUSH2 0xF2 JUMPI PUSH1 0x0 DUP1 REVERT JUMPDEST POP PUSH2 0xFB PUSH2 0x38F JUMP JUMPDEST PUSH1 0x40 MLOAD PUSH2 0x108 SWAP2 SWAP1 PUSH2 0x9C4 JUMP JUMPDEST PUSH1 0x40 MLOAD DUP1 SWAP2 SUB SWAP1 RETURN JUMPDEST CALLVALUE DUP1 ISZERO PUSH2 0x11D JUMPI PUSH1 0x0 DUP1 REVERT JUMPDEST POP PUSH2 0x126 PUSH2 0x3B5 JUMP JUMPDEST PUSH1 0x40 MLOAD PUSH2 0x133 SWAP2 SWAP1 PUSH2 0x9EE JUMP JUMPDEST PUSH1 0x40 MLOAD DUP1 SWAP2 SUB SWAP1 RETURN JUMPDEST CALLVALUE DUP1 ISZERO PUSH2 0x148 JUMPI PUSH1 0x0 DUP1 REVERT JUMPDEST POP PUSH2 0x163 PUSH1 0x4 DUP1 CALLDATASIZE SUB DUP2 ADD SWAP1 PUSH2 0x15E SWAP2 SWAP1 PUSH2 0xB8D JUMP JUMPDEST PUSH2 0x3BB JUMP JUMPDEST STOP JUMPDEST CALLVALUE DUP1 ISZERO PUSH2 0x171 JUMPI PUSH1 0x0 DUP1 REVERT JUMPDEST POP PUSH2 0x17A PUSH2 0x516 JUMP JUMPDEST PUSH1 0x40 MLOAD PUSH2 0x187 SWAP2 SWAP1 PUSH2 0x9EE JUMP JUMPDEST PUSH1 0x40 MLOAD DUP1 SWAP2 SUB SWAP1 RETURN JUMPDEST PUSH2 0x198 PUSH2 0x51C JUMP JUMPDEST STOP JUMPDEST CALLVALUE DUP1 ISZERO PUSH2 0x1A6 JUMPI PUSH1 0x0 DUP1 REVERT JUMPDEST POP PUSH2 0x1C1 PUSH1 0x4 DUP1 CALLDATASIZE SUB DUP2 ADD SWAP1 PUSH2 0x1BC SWAP2 SWAP1 PUSH2 0x8C7 JUMP JUMPDEST PUSH2 0x5D3 JUMP JUMPDEST STOP JUMPDEST PUSH1 0x1 PUSH1 0x0 SWAP1 SLOAD SWAP1 PUSH2 0x100 EXP SWAP1 DIV PUSH20 0xFFFFFFFFFFFFFFFFFFFFFFFFFFFFFFFFFFFFFFFF AND PUSH20 0xFFFFFFFFFFFFFFFFFFFFFFFFFFFFFFFFFFFFFFFF AND CALLER PUSH20 0xFFFFFFFFFFFFFFFFFFFFFFFFFFFFFFFFFFFFFFFF AND EQ PUSH2 0x21D JUMPI PUSH1 0x0 DUP1 REVERT JUMPDEST PUSH1 0x0 DUP1 PUSH1 0x0 DUP4 DUP2 MSTORE PUSH1 0x20 ADD SWAP1 DUP2 MSTORE PUSH1 0x20 ADD PUSH1 0x0 KECCAK256 SWAP1 POP PUSH1 0x0 ISZERO ISZERO DUP2 PUSH1 0x2 ADD PUSH1 0x14 SWAP1 SLOAD SWAP1 PUSH2 0x100 EXP SWAP1 DIV PUSH1 0xFF AND ISZERO ISZERO EQ PUSH2 0x28B JUMPI PUSH1 0x40 MLOAD PUSH32 0x8C379A000000000000000000000000000000000000000000000000000000000 DUP2 MSTORE PUSH1 0x4 ADD PUSH2 0x282 SWAP1 PUSH2 0xC59 JUMP JUMPDEST PUSH1 0x40 MLOAD DUP1 SWAP2 SUB SWAP1 REVERT JUMPDEST PUSH1 0x2 PUSH1 0x4 SLOAD PUSH2 0x29A SWAP2 SWAP1 PUSH2 0xCD7 JUMP JUMPDEST DUP2 PUSH1 0x3 ADD SLOAD GT PUSH2 0x2DF JUMPI PUSH1 0x40 MLOAD PUSH32 0x8C379A000000000000000000000000000000000000000000000000000000000 DUP2 MSTORE PUSH1 0x4 ADD PUSH2 0x2D6 SWAP1 PUSH2 0xD54 JUMP JUMPDEST PUSH1 0x40 MLOAD DUP1 SWAP2 SUB SWAP1 REVERT JUMPDEST DUP1 PUSH1 0x2 ADD PUSH1 0x0 SWAP1 SLOAD SWAP1 PUSH2 0x100 EXP SWAP1 DIV PUSH20 0xFFFFFFFFFFFFFFFFFFFFFFFFFFFFFFFFFFFFFFFF AND PUSH20 0xFFFFFFFFFFFFFFFFFFFFFFFFFFFFFFFFFFFFFFFF AND PUSH2 0x8FC DUP3 PUSH1 0x1 ADD SLOAD SWAP1 DUP2 ISZERO MUL SWAP1 PUSH1 0x40 MLOAD PUSH1 0x0 PUSH1 0x40 MLOAD DUP1 DUP4 SUB DUP2 DUP6 DUP9 DUP9 CALL SWAP4 POP POP POP POP ISZERO DUP1 ISZERO PUSH2 0x34D JUMPI RETURNDATASIZE PUSH1 0x0 DUP1 RETURNDATACOPY RETURNDATASIZE PUSH1 0x0 REVERT JUMPDEST POP PUSH1 0x1 DUP2 PUSH1 0x2 ADD PUSH1 0x14 PUSH2 0x100 EXP DUP2 SLOAD DUP2 PUSH1 0xFF MUL NOT AND SWAP1 DUP4 ISZERO ISZERO MUL OR SWAP1 SSTORE POP POP POP JUMP JUMPDEST PUSH1 0x3 PUSH1 0x20 MSTORE DUP1 PUSH1 0x0 MSTORE PUSH1 0x40 PUSH1 0x0 KECCAK256 PUSH1 0x0 SWAP2 POP SLOAD SWAP1 PUSH2 0x100 EXP SWAP1 DIV PUSH1 0xFF AND DUP2 JUMP JUMPDEST PUSH1 0x1 PUSH1 0x0 SWAP1 SLOAD SWAP1 PUSH2 0x100 EXP SWAP1 DIV PUSH20 0xFFFFFFFFFFFFFFFFFFFFFFFFFFFFFFFFFFFFFFFF AND DUP2 JUMP JUMPDEST PUSH1 0x4 SLOAD DUP2 JUMP JUMPDEST PUSH1 0x1 PUSH1 0x0 SWAP1 SLOAD SWAP1 PUSH2 0x100 EXP SWAP1 DIV PUSH20 0xFFFFFFFFFFFFFFFFFFFFFFFFFFFFFFFFFFFFFFFF AND PUSH20 0xFFFFFFFFFFFFFFFFFFFFFFFFFFFFFFFFFFFFFFFF AND CALLER PUSH20 0xFFFFFFFFFFFFFFFFFFFFFFFFFFFFFFFFFFFFFFFF AND EQ PUSH2 0x415 JUMPI PUSH1 0x0 DUP1 REVERT JUMPDEST SELFBALANCE DUP3 GT ISZERO PUSH2 0x458 JUMPI PUSH1 0x40 MLOAD PUSH32 0x8C379A000000000000000000000000000000000000000000000000000000000 DUP2 MSTORE PUSH1 0x4 ADD PUSH2 0x44F SWAP1 PUSH2 0xDE6 JUMP JUMPDEST PUSH1 0x40 MLOAD DUP1 SWAP2 SUB SWAP1 REVERT JUMPDEST PUSH1 0x0 DUP1 PUSH1 0x0 PUSH1 0x6 PUSH1 0x0 DUP2 SLOAD DUP1 SWAP3 SWAP2 SWAP1 PUSH2 0x470 SWAP1 PUSH2 0xE06 JUMP JUMPDEST SWAP2 SWAP1 POP SSTORE DUP2 MSTORE PUSH1 0x20 ADD SWAP1 DUP2 MSTORE PUSH1 0x20 ADD PUSH1 0x0 KECCAK256 SWAP1 POP DUP4 DUP2 PUSH1 0x0 ADD SWAP1 DUP1 MLOAD SWAP1 PUSH1 0x20 ADD SWAP1 PUSH2 0x49C SWAP3 SWAP2 SWAP1 PUSH2 0x7DA JUMP JUMPDEST POP DUP3 DUP2 PUSH1 0x1 ADD DUP2 SWAP1 SSTORE POP DUP2 DUP2 PUSH1 0x2 ADD PUSH1 0x0 PUSH2 0x100 EXP DUP2 SLOAD DUP2 PUSH20 0xFFFFFFFFFFFFFFFFFFFFFFFFFFFFFFFFFFFFFFFF MUL NOT AND SWAP1 DUP4 PUSH20 0xFFFFFFFFFFFFFFFFFFFFFFFFFFFFFFFFFFFFFFFF AND MUL OR SWAP1 SSTORE POP PUSH1 0x0 DUP2 PUSH1 0x2 ADD PUSH1 0x14 PUSH2 0x100 EXP DUP2 SLOAD DUP2 PUSH1 0xFF MUL NOT AND SWAP1 DUP4 ISZERO ISZERO MUL OR SWAP1 SSTORE POP PUSH1 0x0 DUP2 PUSH1 0x3 ADD DUP2 SWAP1 SSTORE POP POP POP POP POP JUMP JUMPDEST PUSH1 0x2 SLOAD DUP2 JUMP JUMPDEST PUSH1 0x2 SLOAD CALLVALUE LT ISZERO PUSH2 0x561 JUMPI PUSH1 0x40 MLOAD PUSH32 0x8C379A000000000000000000000000000000000000000000000000000000000 DUP2 MSTORE PUSH1 0x4 ADD PUSH2 0x558 SWAP1 PUSH2 0xEC1 JUMP JUMPDEST PUSH1 0x40 MLOAD DUP1 SWAP2 SUB SWAP1 REVERT JUMPDEST PUSH1 0x1 PUSH1 0x3 PUSH1 0x0 CALLER PUSH20 0xFFFFFFFFFFFFFFFFFFFFFFFFFFFFFFFFFFFFFFFF AND PUSH20 0xFFFFFFFFFFFFFFFFFFFFFFFFFFFFFFFFFFFFFFFF AND DUP2 MSTORE PUSH1 0x20 ADD SWAP1 DUP2 MSTORE PUSH1 0x20 ADD PUSH1 0x0 KECCAK256 PUSH1 0x0 PUSH2 0x100 EXP DUP2 SLOAD DUP2 PUSH1 0xFF MUL NOT AND SWAP1 DUP4 ISZERO ISZERO MUL OR SWAP1 SSTORE POP PUSH1 0x4 PUSH1 0x0 DUP2 SLOAD DUP1 SWAP3 SWAP2 SWAP1 PUSH2 0x5CC SWAP1 PUSH2 0xE06 JUMP JUMPDEST SWAP2 SWAP1 POP SSTORE POP JUMP JUMPDEST PUSH1 0x0 DUP1 PUSH1 0x0 DUP4 DUP2 MSTORE PUSH1 0x20 ADD SWAP1 DUP2 MSTORE PUSH1 0x20 ADD PUSH1 0x0 KECCAK256 SWAP1 POP PUSH1 0x3 PUSH1 0x0 CALLER PUSH20 0xFFFFFFFFFFFFFFFFFFFFFFFFFFFFFFFFFFFFFFFF AND PUSH20 0xFFFFFFFFFFFFFFFFFFFFFFFFFFFFFFFFFFFFFFFF AND DUP2 MSTORE PUSH1 0x20 ADD SWAP1 DUP2 MSTORE PUSH1 0x20 ADD PUSH1 0x0 KECCAK256 PUSH1 0x0 SWAP1 SLOAD SWAP1 PUSH2 0x100 EXP SWAP1 DIV PUSH1 0xFF AND PUSH2 0x675 JUMPI PUSH1 0x40 MLOAD PUSH32 0x8C379A000000000000000000000000000000000000000000000000000000000 DUP2 MSTORE PUSH1 0x4 ADD PUSH2 0x66C SWAP1 PUSH2 0xF2D JUMP JUMPDEST PUSH1 0x40 MLOAD DUP1 SWAP2 SUB SWAP1 REVERT JUMPDEST PUSH1 0x0 ISZERO ISZERO DUP2 PUSH1 0x4 ADD PUSH1 0x0 CALLER PUSH20 0xFFFFFFFFFFFFFFFFFFFFFFFFFFFFFFFFFFFFFFFF AND PUSH20 0xFFFFFFFFFFFFFFFFFFFFFFFFFFFFFFFFFFFFFFFF AND DUP2 MSTORE PUSH1 0x20 ADD SWAP1 DUP2 MSTORE PUSH1 0x20 ADD PUSH1 0x0 KECCAK256 PUSH1 0x0 SWAP1 SLOAD SWAP1 PUSH2 0x100 EXP SWAP1 DIV PUSH1 0xFF AND ISZERO ISZERO EQ PUSH2 0x70A JUMPI PUSH1 0x40 MLOAD PUSH32 0x8C379A000000000000000000000000000000000000000000000000000000000 DUP2 MSTORE PUSH1 0x4 ADD PUSH2 0x701 SWAP1 PUSH2 0xFBF JUMP JUMPDEST PUSH1 0x40 MLOAD DUP1 SWAP2 SUB SWAP1 REVERT JUMPDEST PUSH1 0x0 ISZERO ISZERO DUP2 PUSH1 0x2 ADD PUSH1 0x14 SWAP1 SLOAD SWAP1 PUSH2 0x100 EXP SWAP1 DIV PUSH1 0xFF AND ISZERO ISZERO EQ PUSH2 0x762 JUMPI PUSH1 0x40 MLOAD PUSH32 0x8C379A000000000000000000000000000000000000000000000000000000000 DUP2 MSTORE PUSH1 0x4 ADD PUSH2 0x759 SWAP1 PUSH2 0xC59 JUMP JUMPDEST PUSH1 0x40 MLOAD DUP1 SWAP2 SUB SWAP1 REVERT JUMPDEST PUSH1 0x1 DUP2 PUSH1 0x4 ADD PUSH1 0x0 CALLER PUSH20 0xFFFFFFFFFFFFFFFFFFFFFFFFFFFFFFFFFFFFFFFF AND PUSH20 0xFFFFFFFFFFFFFFFFFFFFFFFFFFFFFFFFFFFFFFFF AND DUP2 MSTORE PUSH1 0x20 ADD SWAP1 DUP2 MSTORE PUSH1 0x20 ADD PUSH1 0x0 KECCAK256 PUSH1 0x0 PUSH2 0x100 EXP DUP2 SLOAD DUP2 PUSH1 0xFF MUL NOT AND SWAP1 DUP4 ISZERO ISZERO MUL OR SWAP1 SSTORE POP DUP1 PUSH1 0x3 ADD PUSH1 0x0 DUP2 SLOAD DUP1 SWAP3 SWAP2 SWAP1 PUSH2 0x7D1 SWAP1 PUSH2 0xE06 JUMP JUMPDEST SWAP2 SWAP1 POP SSTORE POP POP POP JUMP JUMPDEST DUP3 DUP1 SLOAD PUSH2 0x7E6 SWAP1 PUSH2 0x100E JUMP JUMPDEST SWAP1 PUSH1 0x0 MSTORE PUSH1 0x20 PUSH1 0x0 KECCAK256 SWAP1 PUSH1 0x1F ADD PUSH1 0x20 SWAP1 DIV DUP2 ADD SWAP3 DUP3 PUSH2 0x808 JUMPI PUSH1 0x0 DUP6 SSTORE PUSH2 0x84F JUMP JUMPDEST DUP3 PUSH1 0x1F LT PUSH2 0x821 JUMPI DUP1 MLOAD PUSH1 0xFF NOT AND DUP4 DUP1 ADD OR DUP6 SSTORE PUSH2 0x84F JUMP JUMPDEST DUP3 DUP1 ADD PUSH1 0x1 ADD DUP6 SSTORE DUP3 ISZERO PUSH2 0x84F JUMPI SWAP2 DUP3 ADD JUMPDEST DUP3 DUP2 GT ISZERO PUSH2 0x84E JUMPI DUP3 MLOAD DUP3 SSTORE SWAP2 PUSH1 0x20 ADD SWAP2 SWAP1 PUSH1 0x1 ADD SWAP1 PUSH2 0x833 JUMP JUMPDEST JUMPDEST POP SWAP1 POP PUSH2 0x85C SWAP2 SWAP1 PUSH2 0x860 JUMP JUMPDEST POP SWAP1 JUMP JUMPDEST JUMPDEST DUP1 DUP3 GT ISZERO PUSH2 0x879 JUMPI PUSH1 0x0 DUP2 PUSH1 0x0 SWAP1 SSTORE POP PUSH1 0x1 ADD PUSH2 0x861 JUMP JUMPDEST POP SWAP1 JUMP JUMPDEST PUSH1 0x0 PUSH1 0x40 MLOAD SWAP1 POP SWAP1 JUMP JUMPDEST PUSH1 0x0 DUP1 REVERT JUMPDEST PUSH1 0x0 DUP1 REVERT JUMPDEST PUSH1 0x0 DUP2 SWAP1 POP SWAP2 SWAP1 POP JUMP JUMPDEST PUSH2 0x8A4 DUP2 PUSH2 0x891 JUMP JUMPDEST DUP2 EQ PUSH2 0x8AF JUMPI PUSH1 0x0 DUP1 REVERT JUMPDEST POP JUMP JUMPDEST PUSH1 0x0 DUP2 CALLDATALOAD SWAP1 POP PUSH2 0x8C1 DUP2 PUSH2 0x89B JUMP JUMPDEST SWAP3 SWAP2 POP POP JUMP JUMPDEST PUSH1 0x0 PUSH1 0x20 DUP3 DUP5 SUB SLT ISZERO PUSH2 0x8DD JUMPI PUSH2 0x8DC PUSH2 0x887 JUMP JUMPDEST JUMPDEST PUSH1 0x0 PUSH2 0x8EB DUP5 DUP3 DUP6 ADD PUSH2 0x8B2 JUMP JUMPDEST SWAP2 POP POP SWAP3 SWAP2 POP POP JUMP JUMPDEST PUSH1 0x0 PUSH20 0xFFFFFFFFFFFFFFFFFFFFFFFFFFFFFFFFFFFFFFFF DUP3 AND SWAP1 POP SWAP2 SWAP1 POP JUMP JUMPDEST PUSH1 0x0 PUSH2 0x91F DUP3 PUSH2 0x8F4 JUMP JUMPDEST SWAP1 POP SWAP2 SWAP1 POP JUMP JUMPDEST PUSH2 0x92F DUP2 PUSH2 0x914 JUMP JUMPDEST DUP2 EQ PUSH2 0x93A JUMPI PUSH1 0x0 DUP1 REVERT JUMPDEST POP JUMP JUMPDEST PUSH1 0x0 DUP2 CALLDATALOAD SWAP1 POP PUSH2 0x94C DUP2 PUSH2 0x926 JUMP JUMPDEST SWAP3 SWAP2 POP POP JUMP JUMPDEST PUSH1 0x0 PUSH1 0x20 DUP3 DUP5 SUB SLT ISZERO PUSH2 0x968 JUMPI PUSH2 0x967 PUSH2 0x887 JUMP JUMPDEST JUMPDEST PUSH1 0x0 PUSH2 0x976 DUP5 DUP3 DUP6 ADD PUSH2 0x93D JUMP JUMPDEST SWAP2 POP POP SWAP3 SWAP2 POP POP JUMP JUMPDEST PUSH1 0x0 DUP2 ISZERO ISZERO SWAP1 POP SWAP2 SWAP1 POP JUMP JUMPDEST PUSH2 0x994 DUP2 PUSH2 0x97F JUMP JUMPDEST DUP3 MSTORE POP POP JUMP JUMPDEST PUSH1 0x0 PUSH1 0x20 DUP3 ADD SWAP1 POP PUSH2 0x9AF PUSH1 0x0 DUP4 ADD DUP5 PUSH2 0x98B JUMP JUMPDEST SWAP3 SWAP2 POP POP JUMP JUMPDEST PUSH2 0x9BE DUP2 PUSH2 0x914 JUMP JUMPDEST DUP3 MSTORE POP POP JUMP JUMPDEST PUSH1 0x0 PUSH1 0x20 DUP3 ADD SWAP1 POP PUSH2 0x9D9 PUSH1 0x0 DUP4 ADD DUP5 PUSH2 0x9B5 JUMP JUMPDEST SWAP3 SWAP2 POP POP JUMP JUMPDEST PUSH2 0x9E8 DUP2 PUSH2 0x891 JUMP JUMPDEST DUP3 MSTORE POP POP JUMP JUMPDEST PUSH1 0x0 PUSH1 0x20 DUP3 ADD SWAP1 POP PUSH2 0xA03 PUSH1 0x0 DUP4 ADD DUP5 PUSH2 0x9DF JUMP JUMPDEST SWAP3 SWAP2 POP POP JUMP JUMPDEST PUSH1 0x0 DUP1 REVERT JUMPDEST PUSH1 0x0 DUP1 REVERT JUMPDEST PUSH1 0x0 PUSH1 0x1F NOT PUSH1 0x1F DUP4 ADD AND SWAP1 POP SWAP2 SWAP1 POP JUMP JUMPDEST PUSH32 0x4E487B7100000000000000000000000000000000000000000000000000000000 PUSH1 0x0 MSTORE PUSH1 0x41 PUSH1 0x4 MSTORE PUSH1 0x24 PUSH1 0x0 REVERT JUMPDEST PUSH2 0xA5C DUP3 PUSH2 0xA13 JUMP JUMPDEST DUP2 ADD DUP2 DUP2 LT PUSH8 0xFFFFFFFFFFFFFFFF DUP3 GT OR ISZERO PUSH2 0xA7B JUMPI PUSH2 0xA7A PUSH2 0xA24 JUMP JUMPDEST JUMPDEST DUP1 PUSH1 0x40 MSTORE POP POP POP JUMP JUMPDEST PUSH1 0x0 PUSH2 0xA8E PUSH2 0x87D JUMP JUMPDEST SWAP1 POP PUSH2 0xA9A DUP3 DUP3 PUSH2 0xA53 JUMP JUMPDEST SWAP2 SWAP1 POP JUMP JUMPDEST PUSH1 0x0 PUSH8 0xFFFFFFFFFFFFFFFF DUP3 GT ISZERO PUSH2 0xABA JUMPI PUSH2 0xAB9 PUSH2 0xA24 JUMP JUMPDEST JUMPDEST PUSH2 0xAC3 DUP3 PUSH2 0xA13 JUMP JUMPDEST SWAP1 POP PUSH1 0x20 DUP2 ADD SWAP1 POP SWAP2 SWAP1 POP JUMP JUMPDEST DUP3 DUP2 DUP4 CALLDATACOPY PUSH1 0x0 DUP4 DUP4 ADD MSTORE POP POP POP JUMP JUMPDEST PUSH1 0x0 PUSH2 0xAF2 PUSH2 0xAED DUP5 PUSH2 0xA9F JUMP JUMPDEST PUSH2 0xA84 JUMP JUMPDEST SWAP1 POP DUP3 DUP2 MSTORE PUSH1 0x20 DUP2 ADD DUP5 DUP5 DUP5 ADD GT ISZERO PUSH2 0xB0E JUMPI PUSH2 0xB0D PUSH2 0xA0E JUMP JUMPDEST JUMPDEST PUSH2 0xB19 DUP5 DUP3 DUP6 PUSH2 0xAD0 JUMP JUMPDEST POP SWAP4 SWAP3 POP POP POP JUMP JUMPDEST PUSH1 0x0 DUP3 PUSH1 0x1F DUP4 ADD SLT PUSH2 0xB36 JUMPI PUSH2 0xB35 PUSH2 0xA09 JUMP JUMPDEST JUMPDEST DUP2 CALLDATALOAD PUSH2 0xB46 DUP5 DUP3 PUSH1 0x20 DUP7 ADD PUSH2 0xADF JUMP JUMPDEST SWAP2 POP POP SWAP3 SWAP2 POP POP JUMP JUMPDEST PUSH1 0x0 PUSH2 0xB5A DUP3 PUSH2 0x8F4 JUMP JUMPDEST SWAP1 POP SWAP2 SWAP1 POP JUMP JUMPDEST PUSH2 0xB6A DUP2 PUSH2 0xB4F JUMP JUMPDEST DUP2 EQ PUSH2 0xB75 JUMPI PUSH1 0x0 DUP1 REVERT JUMPDEST POP JUMP JUMPDEST PUSH1 0x0 DUP2 CALLDATALOAD SWAP1 POP PUSH2 0xB87 DUP2 PUSH2 0xB61 JUMP JUMPDEST SWAP3 SWAP2 POP POP JUMP JUMPDEST PUSH1 0x0 DUP1 PUSH1 0x0 PUSH1 0x60 DUP5 DUP7 SUB SLT ISZERO PUSH2 0xBA6 JUMPI PUSH2 0xBA5 PUSH2 0x887 JUMP JUMPDEST JUMPDEST PUSH1 0x0 DUP5 ADD CALLDATALOAD PUSH8 0xFFFFFFFFFFFFFFFF DUP2 GT ISZERO PUSH2 0xBC4 JUMPI PUSH2 0xBC3 PUSH2 0x88C JUMP JUMPDEST JUMPDEST PUSH2 0xBD0 DUP7 DUP3 DUP8 ADD PUSH2 0xB21 JUMP JUMPDEST SWAP4 POP POP PUSH1 0x20 PUSH2 0xBE1 DUP7 DUP3 DUP8 ADD PUSH2 0x8B2 JUMP JUMPDEST SWAP3 POP POP PUSH1 0x40 PUSH2 0xBF2 DUP7 DUP3 DUP8 ADD PUSH2 0xB78 JUMP JUMPDEST SWAP2 POP POP SWAP3 POP SWAP3 POP SWAP3 JUMP JUMPDEST PUSH1 0x0 DUP3 DUP3 MSTORE PUSH1 0x20 DUP3 ADD SWAP1 POP SWAP3 SWAP2 POP POP JUMP JUMPDEST PUSH32 0x526571756573742077617320616C72656164792066696E616C697A65642E0000 PUSH1 0x0 DUP3 ADD MSTORE POP JUMP JUMPDEST PUSH1 0x0 PUSH2 0xC43 PUSH1 0x1E DUP4 PUSH2 0xBFC JUMP JUMPDEST SWAP2 POP PUSH2 0xC4E DUP3 PUSH2 0xC0D JUMP JUMPDEST PUSH1 0x20 DUP3 ADD SWAP1 POP SWAP2 SWAP1 POP JUMP JUMPDEST PUSH1 0x0 PUSH1 0x20 DUP3 ADD SWAP1 POP DUP2 DUP2 SUB PUSH1 0x0 DUP4 ADD MSTORE PUSH2 0xC72 DUP2 PUSH2 0xC36 JUMP JUMPDEST SWAP1 POP SWAP2 SWAP1 POP JUMP JUMPDEST PUSH32 0x4E487B7100000000000000000000000000000000000000000000000000000000 PUSH1 0x0 MSTORE PUSH1 0x12 PUSH1 0x4 MSTORE PUSH1 0x24 PUSH1 0x0 REVERT JUMPDEST PUSH32 0x4E487B7100000000000000000000000000000000000000000000000000000000 PUSH1 0x0 MSTORE PUSH1 0x11 PUSH1 0x4 MSTORE PUSH1 0x24 PUSH1 0x0 REVERT JUMPDEST PUSH1 0x0 PUSH2 0xCE2 DUP3 PUSH2 0x891 JUMP JUMPDEST SWAP2 POP PUSH2 0xCED DUP4 PUSH2 0x891 JUMP JUMPDEST SWAP3 POP DUP3 PUSH2 0xCFD JUMPI PUSH2 0xCFC PUSH2 0xC79 JUMP JUMPDEST JUMPDEST DUP3 DUP3 DIV SWAP1 POP SWAP3 SWAP2 POP POP JUMP JUMPDEST PUSH32 0x4E6F7420656E6F75676820617070726F76616C732E0000000000000000000000 PUSH1 0x0 DUP3 ADD MSTORE POP JUMP JUMPDEST PUSH1 0x0 PUSH2 0xD3E PUSH1 0x15 DUP4 PUSH2 0xBFC JUMP JUMPDEST SWAP2 POP PUSH2 0xD49 DUP3 PUSH2 0xD08 JUMP JUMPDEST PUSH1 0x20 DUP3 ADD SWAP1 POP SWAP2 SWAP1 POP JUMP JUMPDEST PUSH1 0x0 PUSH1 0x20 DUP3 ADD SWAP1 POP DUP2 DUP2 SUB PUSH1 0x0 DUP4 ADD MSTORE PUSH2 0xD6D DUP2 PUSH2 0xD31 JUMP JUMPDEST SWAP1 POP SWAP2 SWAP1 POP JUMP JUMPDEST PUSH32 0x4E6F7420656E6F756768206D6F6E657920746F20726571756573742074686174 PUSH1 0x0 DUP3 ADD MSTORE PUSH32 0x20616D6F756E7400000000000000000000000000000000000000000000000000 PUSH1 0x20 DUP3 ADD MSTORE POP JUMP JUMPDEST PUSH1 0x0 PUSH2 0xDD0 PUSH1 0x27 DUP4 PUSH2 0xBFC JUMP JUMPDEST SWAP2 POP PUSH2 0xDDB DUP3 PUSH2 0xD74 JUMP JUMPDEST PUSH1 0x40 DUP3 ADD SWAP1 POP SWAP2 SWAP1 POP JUMP JUMPDEST PUSH1 0x0 PUSH1 0x20 DUP3 ADD SWAP1 POP DUP2 DUP2 SUB PUSH1 0x0 DUP4 ADD MSTORE PUSH2 0xDFF DUP2 PUSH2 0xDC3 JUMP JUMPDEST SWAP1 POP SWAP2 SWAP1 POP JUMP JUMPDEST PUSH1 0x0 PUSH2 0xE11 DUP3 PUSH2 0x891 JUMP JUMPDEST SWAP2 POP PUSH32 0xFFFFFFFFFFFFFFFFFFFFFFFFFFFFFFFFFFFFFFFFFFFFFFFFFFFFFFFFFFFFFFFF DUP3 EQ ISZERO PUSH2 0xE44 JUMPI PUSH2 0xE43 PUSH2 0xCA8 JUMP JUMPDEST JUMPDEST PUSH1 0x1 DUP3 ADD SWAP1 POP SWAP2 SWAP1 POP JUMP JUMPDEST PUSH32 0x416D6F756E742073656E74206973206C657373207468616E20746865206D696E PUSH1 0x0 DUP3 ADD MSTORE PUSH32 0x696D756D20636F6E747269627574696F6E206C696D69742E0000000000000000 PUSH1 0x20 DUP3 ADD MSTORE POP JUMP JUMPDEST PUSH1 0x0 PUSH2 0xEAB PUSH1 0x38 DUP4 PUSH2 0xBFC JUMP JUMPDEST SWAP2 POP PUSH2 0xEB6 DUP3 PUSH2 0xE4F JUMP JUMPDEST PUSH1 0x40 DUP3 ADD SWAP1 POP SWAP2 SWAP1 POP JUMP JUMPDEST PUSH1 0x0 PUSH1 0x20 DUP3 ADD SWAP1 POP DUP2 DUP2 SUB PUSH1 0x0 DUP4 ADD MSTORE PUSH2 0xEDA DUP2 PUSH2 0xE9E JUMP JUMPDEST SWAP1 POP SWAP2 SWAP1 POP JUMP JUMPDEST PUSH32 0x596F7520617265206E6F7420616E20617070726F7665722E0000000000000000 PUSH1 0x0 DUP3 ADD MSTORE POP JUMP JUMPDEST PUSH1 0x0 PUSH2 0xF17 PUSH1 0x18 DUP4 PUSH2 0xBFC JUMP JUMPDEST SWAP2 POP PUSH2 0xF22 DUP3 PUSH2 0xEE1 JUMP JUMPDEST PUSH1 0x20 DUP3 ADD SWAP1 POP SWAP2 SWAP1 POP JUMP JUMPDEST PUSH1 0x0 PUSH1 0x20 DUP3 ADD SWAP1 POP DUP2 DUP2 SUB PUSH1 0x0 DUP4 ADD MSTORE PUSH2 0xF46 DUP2 PUSH2 0xF0A JUMP JUMPDEST SWAP1 POP SWAP2 SWAP1 POP JUMP JUMPDEST PUSH32 0x596F75206861766520616C726561647920766F746564206F6E20746869732072 PUSH1 0x0 DUP3 ADD MSTORE PUSH32 0x6571756573742E00000000000000000000000000000000000000000000000000 PUSH1 0x20 DUP3 ADD MSTORE POP JUMP JUMPDEST PUSH1 0x0 PUSH2 0xFA9 PUSH1 0x27 DUP4 PUSH2 0xBFC JUMP JUMPDEST SWAP2 POP PUSH2 0xFB4 DUP3 PUSH2 0xF4D JUMP JUMPDEST PUSH1 0x40 DUP3 ADD SWAP1 POP SWAP2 SWAP1 POP JUMP JUMPDEST PUSH1 0x0 PUSH1 0x20 DUP3 ADD SWAP1 POP DUP2 DUP2 SUB PUSH1 0x0 DUP4 ADD MSTORE PUSH2 0xFD8 DUP2 PUSH2 0xF9C JUMP JUMPDEST SWAP1 POP SWAP2 SWAP1 POP JUMP JUMPDEST PUSH32 0x4E487B7100000000000000000000000000000000000000000000000000000000 PUSH1 0x0 MSTORE PUSH1 0x22 PUSH1 0x4 MSTORE PUSH1 0x24 PUSH1 0x0 REVERT JUMPDEST PUSH1 0x0 PUSH1 0x2 DUP3 DIV SWAP1 POP PUSH1 0x1 DUP3 AND DUP1 PUSH2 0x1026 JUMPI PUSH1 0x7F DUP3 AND SWAP2 POP JUMPDEST PUSH1 0x20 DUP3 LT DUP2 EQ ISZERO PUSH2 0x103A JUMPI PUSH2 0x1039 PUSH2 0xFDF JUMP JUMPDEST JUMPDEST POP SWAP2 SWAP1 POP JUMP INVALID LOG2 PUSH5 0x6970667358 0x22 SLT KECCAK256 0xD3 CALLVALUE PUSH14 0xFE2C5502F59424BDFE4C2AAA3ACF SWAP14 SELFDESTRUCT PUSH8 0xDE7272586FFC11EB 0xB4 0xB6 0xCD 0x5E PUSH5 0x736F6C6343 STOP ADDMOD SIGNEXTEND STOP CALLER "},"gasEstimates":{"creation":{"codeDepositCost":"842800","executionCost":"infinite","totalCost":"infinite"},"external":{"approveRequest(uint256)":"infinite","approvers(address)":"2868","approversCount()":"2496","contribute()":"51005","createRequest(string,uint256,address)":"infinite","finalizeRequest(uint256)":"infinite","manager()":"2559","minimumContribution()":"2451"}},"methodIdentifiers":{"approveRequest(uint256)":"d7d1bbdb","approvers(address)":"0a144391","approversCount()":"82fde093","contribute()":"d7bb99ba","createRequest(string,uint256,address)":"8a9cfd55","finalizeRequest(uint256)":"03441006","manager()":"481c6a75","minimumContribution()":"937e09b1"}},"storageLayout":{"storage":[{"astId":60,"contract":"campaign.sol:Campaign","label":"requests","offset":0,"slot":"0","type":"t_mapping(t_uint256,t_struct(Request)55_storage)"},{"astId":62,"contract":"campaign.sol:Campaign","label":"manager","offset":0,"slot":"1","type":"t_address"},{"astId":64,"contract":"campaign.sol:Campaign","label":"minimumContribution","offset":0,"slot":"2","type":"t_uint256"},{"astId":68,"contract":"campaign.sol:Campaign","label":"approvers","offset":0,"slot":"3","type":"t_mapping(t_address,t_bool)"},{"astId":70,"contract":"campaign.sol:Campaign","label":"approversCount","offset":0,"slot":"4","type":"t_uint256"},{"astId":74,"contract":"campaign.sol:Campaign","label":"requestpprovals","offset":0,"slot":"5","type":"t_mapping(t_address,t_bool)"},{"astId":125,"contract":"campaign.sol:Campaign","label":"numRequests","offset":0,"slot":"6","type":"t_uint256"}],"types":{"t_address":{"encoding":"inplace","label":"address","numberOfBytes":"20"},"t_address_payable":{"encoding":"inplace","label":"address payable","numberOfBytes":"20"},"t_bool":{"encoding":"inplace","label":"bool","numberOfBytes":"1"},"t_mapping(t_address,t_bool)":{"encoding":"mapping","key":"t_address","label":"mapping(address => bool)","numberOfBytes":"32","value":"t_bool"},"t_mapping(t_uint256,t_struct(Request)55_storage)":{"encoding":"mapping","key":"t_uint256","label":"mapping(uint256 => struct Campaign.Request)","numberOfBytes":"32","value":"t_struct(Request)55_storage"},"t_string_storage":{"encoding":"bytes","label":"string","numberOfBytes":"32"},"t_struct(Request)55_storage":{"encoding":"inplace","label":"struct Campaign.Request","members":[{"astId":42,"contract":"campaign.sol:Campaign","label":"description","offset":0,"slot":"0","type":"t_string_storage"},{"astId":44,"contract":"campaign.sol:Campaign","label":"value","offset":0,"slot":"1","type":"t_uint256"},{"astId":46,"contract":"campaign.sol:Campaign","label":"recipient","offset":0,"slot":"2","type":"t_address_payable"},{"astId":48,"contract":"campaign.sol:Campaign","label":"complete","offset":20,"slot":"2","type":"t_bool"},{"astId":50,"contract":"campaign.sol:Campaign","label":"approvalCount","offset":0,"slot":"3","type":"t_uint256"},{"astId":54,"contract":"campaign.sol:Campaign","label":"approvals","offset":0,"slot":"4","type":"t_mapping(t_address,t_bool)"}],"numberOfBytes":"160"},"t_uint256":{"encoding":"inplace","label":"uint256","numberOfBytes":"32"}}},"userdoc":{"kind":"user","methods":{},"version":1}}